:1000000004308A00642C00000C22741D25192E185F
:10001000E61225000A23F232711DA0123517313382
:1000200020247A0034308400831300080319262822
:100030000130F800F701F70B1B28F80B1A284A309B
:10004000F700F70B21282428800B182808003B18FC
:100050002B2808122C280816831608128312BB18A6
:1000600033288811342888158316881183123B1988
:100070003B2808113C280815831608118312BB1968
:10008000432888104428881483168810000083129F
:100090008816831688124C288312881283168812B9
:1000A00083120800BC018316081600308312081A58
:1000B0000130BC0483168815003083128819013082
:1000C000F7000310F70D7708BC04831608150030FD
:1000D000831208190130F700F70DF70DFC30F70512
:1000E0007708BC0483168814003083128818013006
:1000F000F700F70DF70DF70DF830F7057708BC049A
:100100003C08F8000800831688128813081383122D
:100110008813831688130816881508158814831207
:100120000817831608130000831288168316881296
:100130000000831252207808BB00881283168812B0
:100140000000831288168316881200008312522042
:100150007808BA00881283168812081288110811CC
:10016000881083123B0EF700F030F70577083A0449
:10017000F8007808BA00BA1FBF2883168B28B80881
:10018000031DC4288813C528881783168813000008
:100190008312081383160813000083128812831633
:1001A00088128312390EBA000F30BA053A08BB0024
:1001B000272039080F39BA00BB0027200800283053
:1001C000A3000C30A4000130A5000630A600881260
:1001D00083168812831288138316881383120813D8
:1001E00083160813081288110811881088128813C2
:1001F00008130F308312B40012200130A20022082D
:10020000033C031C0B290330BB0027200530B4003E
:100210001220A20AFF280230BB0027200530B400BC
:100220001220A2012208033C031C222923302207AA
:10023000840083130008A700B8012708B9008320B1
:10024000A20A12298A110A127E2C8E30F700280881
:10025000F8002708F900FA01F808031D3929790880
:10026000F800F9010830F702F808031D3929F701F1
:1002700041290310F81B4029F90DF80DF70339291E
:10028000F813080025080319072AB10029080319E3
:10029000072AB102031C51297F30B1070318072A2E
:1002A00057298130B102031C072A0319072A310894
:1002B000F700F801F901FA01B0012608AF00AF1705
:1002C0002708AE002808AD001930B1002C08AD0297
:1002D00003187A290130AE0203187A29AF020318F5
:1002E0007A29B00203187A29B00AAF0AAE0A2C089C
:1002F000AD07AC292B08AE02031895290130AF02D7
:1003000003189529B00203189529B00AAF0A2B08E3
:10031000AE072C08AD07031CAC29AE0A031DAC299F
:10032000AF0A031DAC29B00AAC292A088038AF02F5
:100330000318AB290130B0020318AB29B00A2A0810
:100340008038AF072B08AE07031C8929AF0A031DAD
:100350008929B00A89297A14B10BAF29BA29031067
:10036000AD0DAE0DAF0DB00D0310FA0DF90DF80D7A
:10037000B20D6629321CC2290310F80CF90CFA0CD4
:10038000B20CC529F7030319072AB21BEE29031083
:10039000AD0DAE0DAF0DB00D2C08AD020318DA296E
:1003A0000130AE020318DA29AF020318DA29B002CD
:1003B000031CFD292B08AE020318E5290130AF020A
:1003C0000318E529B002031CFD292A088038AF0272
:1003D0000318EE290130B002031CFD29FA0A031D9F
:1003E000FD29F90A031DFD29F80A031DFD29F70A55
:1003F0000319072AF80CF90CFA0C2608B1002A0890
:10040000B106B11F052AF8170B2AF8130B2AF701BA
:10041000F801F901FA0108008E30F7002708F70209
:100420002808F9002908F800F917F7080319232A02
:100430000310F908031D1F2AF8080319232AF90CD1
:10044000F80CF70B182AA81F2A2AF809F909F80A44
:100450000319F90A0800330803199B2ABB0037085F
:1004600003199B2ABB0703183C2A7F30BB02031CDD
:100470009B2A03199B2A402A8130BB0703189B2A19
:100480003B08F700F801F901FA013408BF00BF1773
:100490003508BE003608BD001830BB00BC013D1C4D
:1004A000692A3A08FA07031C5B2AF90A031D5B2A2A
:1004B000F80A0319BC173908F907031C622AF80A5D
:1004C0000319BC173808B500B5173508F807031825
:1004D000BC17BC0DF80CF90CFA0CBF0CBE0CBD0C13
:1004E0000310BB0B4E2A0130F70703189B2AF81B99
:1004F000802ABF0DFA0DF90DF80DF70303199B2A99
:10050000BF1F912AFA0A031D912AF90A031D912A95
:10051000F80A031D912AF80CF90CFA0CF70A0319D2
:100520009B2A3408BC003808BC06BC1F992AF8175F
:100530009F2AF8139F2AF701F801F901FA01080030
:10054000350BA32AA62A4030B600A72AB6010130EF
:100550003402B60736088038B700B8013708B9004A
:10056000832008003308073A0319C02A0B3A0319FD
:10057000C52A063A0319CD2A023A0319D32AD82AE2
:100580000130B400B500A022DD2AB8010130B90065
:1005900083200230B4001220DD2A0130B400023082
:1005A000B500A022DD2AB8011030B9008320DD2A71
:1005B0000130B8003308B900832008000B08A700F9
:1005C0008B13831603178C170C1400000000831282
:1005D0000313A71B8B170318152B03170C087F3960
:1005E0000313A70003170D080313A80003170F0830
:1005F0000313A9002708B300B222280803178D00AF
:100600000313290803178F0003130B08AA008B1389
:10061000831603178C170C140000000083120313B9
:10062000AA1B8B17A60B152B342B03170C0D0E0DC5
:100630007F390313A70003170D080313A80003173E
:100640000F080313A9002708B300B22228080317D4
:100650008D000313290803178F008D0A03198F0AD1
:1006600003100313A60BDE2A080083183A2B3B3035
:1006700084008313F701F801F901FA01BB01BC0101
:10068000BD01BE013A083904380437040319782B38
:100690002030BF000310B30DB40DB50DB60DBB0D6A
:1006A000BC0DBD0DBE0D3A083E02031D612B39087D
:1006B0003D02031D612B38083C02031D612B3708E6
:1006C0003B02031C722B3708BB023808031C380F8F
:1006D000BC023908031C390FBD023A08031C3A0F4B
:1006E000BE020314F70DF80DF90DFA0DBF0B4A2BDE
:1006F0003B088000840A3C088000840A3D08800092
:10070000840A3E08800008000408AB002A08AD00F7
:100710000319A32B2908B6002808B5002708B40040
:100720002608B300BA01B9012030B8008230B70002
:100730002B227A08A9007908A8007808A700770872
:10074000A600AD0B8A2B2908B6002808B50027089B
:10075000B4002608B3003308B63CB300FA013408ED
:10076000B700B4170310B40CB50CB60CFA0CF90CA6
:10077000F80CF70CB30BB22BB71FC92BF709F8090C
:10078000F909FA09F70A0319F80A0319F90A03190A
:10079000FA0A7A08A9007908A8007808A70077085B
:1007A000A600A91FE02BAB03AB16A609A709A80951
:1007B000A909A60A0319A70A0319A80A0319A90A6D
:1007C0003B30B2009A30B100CA30B000AF010A30FD
:1007D000AD002A080319AB0A831426308400831362
:1007E0002908B6002808B5002708B4002608B30079
:1007F0003208BA003108B9003008B8002F08B70035
:1008000035237808F708031D182C2A0A2D0203192E
:10081000182C2B0803191A2C0F392D020319122C2E
:1008200003184A2CAB1B4A2C2B1B1A2C2030462CAD
:100830002030AB05AB1E282CAB122A08031DAB03DE
:100840007708AB002D30B300B2222B08F700AB01C4
:100850002A082D02031D362C7708AB002E30B3007A
:10086000B2222B08F7002030AB0500303030AB1E31
:10087000462CAB122A08031DAB037708AB002D30C2
:10088000B300B2222B08F700AB013030F70777082E
:10089000B300B22283103208B6003108B500300828
:1008A000B4002F08B300BA01B901B8010A30B7008B
:1008B00035237A08B2007908B1007808B0007708CB
:1008C000AF00AD0BEC2B080003081F398300FF308D
:1008D000A10083161F149F141F159F1107309C0041
:1008E00083131F109F101F119F111F1383121F17B7
:1008F0009F1783169F1783121F14DF280030F800FC
:10090000063892007C308316920083122111210850
:1009100083168700831207110C3097000030F8000F
:100920001F08C73978049F000630F700F70B962C94
:1009300000001F151F199A2C1E08FA0083161E08A6
:100940008312A2001E08A300A8002208A7002521E8
:100950007A08A8007908A7007808A6007708A500FB
:10096000AC01AB01AA018130A90042217A08AA009A
:100970007908A9007808A8007708A7000C22780851
:10098000A0000030F800063892002008831692007C
:100990000830F80083121F08C73978049F0006301A
:1009A000F700F70BD12C000001302007F700770D7E
:1009B000A200A20DFC30A2051F151F19DD2C1E0878
:1009C000FA0083161E088312A3001E08A400A800C4
:1009D0002308A70025217A08A8007908A70078082D
:1009E000A6007708A500AC01C030AB007F30AA009C
:1009F0008830A90042217A08A6007908A500780865
:100A0000A4007708A300A8012208A70025217A08DE
:100A1000B6007908B5007808B4007708B300260856
:100A2000BA002508B9002408B8002308B7002B2213
:100A30007A08AA007908A9007808A8007708A70012
:100A40000C227908A8007808A700A80CA70CA80C0D
:100A5000A70CA80C27089500A80C280C3039F70023
:100A60001708CF39770497001F151F19352D1E0859
:100A7000FA0083161E088312A2001E08A300A80015
:100A80002208A70025217A08A8007908A70078087D
:100A9000A6007708A500AC01C030AB007F30AA00EB
:100AA0008830A90042217A08A5007908A4007808B6
:100AB000A3007708A2007A08B6007908B500780884
:100AC000B4007708B300BA01B9014830B8008530E6
:100AD000B7002B227A08A5007908A4007808A300A3
:100AE0007708A200043003178D0000308F00031038
:100AF00004300313A600DE22013084002508A9007B
:100B00002408A8002308A7002208A600AA0184231D
:100B10002530B300B22201302007A801A70025210B
:100B2000A8012430A7007430A6008E30A5007A08F2
:100B3000AC007908AB007808AA007708A900422128
:100B40007A08A5007908A4007808A3007708A20015
:100B50000A3003178D0000308F0003100730031395
:100B6000A600DE22043084002508A9002408A8007D
:100B70002308A7002208A6000130AA008423203001
:100B8000B300B2224830B300B2227A30B300B222AE
:0A0B9000C830B40012208E2C630060
:02400E000A2F77
:00000001FF
;PIC16F877A
;CRC=714E  CREATED="29-Sep-26 09:13"
