:1000000003308A004D2B00000A108A100A11820763
:100010003134323433342B343434353436342D34B3
:100020003734383439342A342E34303423342F34AE
:100030000C22E933693A65106F10EE3A6D1D0A0023
:100040000C004136F637BA126905C3376E3ABA1258
:1000500069008C216137E332EC30E4370A000C226E
:10006000E933693A65106F10EE3A6D1D0A000C22F3
:10007000E933693A65106F10EE3A6D1D0A000C0005
:100080004136F637BA126905C3376E3ABA126900BB
:10009000343084008313000803195C280130F80011
:1000A000F701F70B5128F80B50284A30F700F70BEF
:1000B00057285A28800B4E2808003B186128081240
:1000C00062280816831608128312BB186928881143
:1000D0006A2888158316881183123B197128081124
:1000E00072280815831608118312BB197928881005
:1000F0007A288814831688100000831288168316C5
:1001000088128228831288128316881283120800AC
:10011000BC018316081600308312081A0130BC0493
:10012000831688150030831288190130F7000310F8
:10013000F70D7708BC0483160815003083120819E0
:100140000130F700F70DF70DFC30F7057708BC0418
:10015000831688140030831288180130F700F70DD9
:10016000F70DF70DF830F7057708BC043C08F800E8
:1001700008008316881288130813831288138316C5
:100180008813081688150815881483120817831613
:100190000813000083128816831688120000831249
:1001A00088207808BB00881283168812000083120A
:1001B0008816831688120000831288207808BA00F7
:1001C0008812831688120812881108118810831269
:1001D0003B0EF700F030F70577083A04F80078088E
:1001E000BA00BA1FF5288316C128B808031DFA28DB
:1001F0008813FB28881783168813000083120813BE
:100200008316081300008312881283168812831243
:10021000390EBA000F30BA053A08BB005D20390824
:100220000F39BA00BB005D2008002830AE000C304A
:10023000AF000130B0000630B1008812831688127A
:1002400083128813831688138312081383160813E6
:1002500008128811081188108812881308130F30AB
:100260008312B40048200130AD002D08033C031C6C
:1002700041290330BB005D200530B4004820AD0AA1
:1002800035290230BB005D200530B4004820AD01A7
:100290002D08033C031C58292E302D07840083139E
:1002A0000008B200B8013208B900B920AD0A4829E7
:1002B0008A110A12972B8A110A12982B350B612981
:1002C00064294030B6006529B60101303402B60712
:1002D00036088038B700B8013708B900B9200800DF
:1002E0003308073A03197E290B3A03198329063A82
:1002F00003198B29023A0319912996290130B40078
:10030000B5005E219B29B8010130B900B920023047
:10031000B40048209B290130B4000230B5005E21B2
:100320009B29B8011030B900B9209B290130B800D1
:100330003308B900B92008000B08AD008B138316F1
:1003400003178C170C140000000083120313AD1B5D
:100350008B1703170C087F390319F0290313AD001D
:1003600003170D080313AE0003170F080313AF00A4
:100370002D08B30070212E0803178D0003132F08DA
:1003800003178F0003130B08B0008B13831603179A
:100390008C170C140000000083120313B01B8B1782
:1003A00003170C0D0E0D7F390319F0290313AD004F
:1003B00003170D080313AE0003170F080313AF0054
:1003C0002D08B30070212E0803178D0003132F088A
:1003D00003178F008D0A03198F0A03139C29031733
:1003E00003130800AD01A00A2008213C0318522A7B
:1003F0002308FC3E0318152A043E5B2AEF308316BF
:10040000860083128600152ADF3083168600831249
:100410008600152ABF308316860083128600152AAF
:100420007F308316860083128600211C212A06084D
:100430000F390F3C031D202A21102208AD00A20114
:10044000512A06080F390F3C03194C2A06080139B6
:10045000031D2C2AAE01402A06080239031D332A47
:100460000130AE00402A06080439031D3A2A023042
:10047000AE00402A06080839031D402A0330AE00AA
:100480002E0DF700F70DFC30F70577082307042041
:10049000F800A2002114512AA30A2308043C0319DE
:1004A000A301A001FF308316860083122D08F800F7
:1004B0008A110A12AC2B0A108A140A118207FE292B
:1004C000042A0A2A102AF701F8012D0803102E1811
:1004D000F707F70CF80CAE18F707F70CF80C2E1905
:1004E000F707F70CF80CAE19F707F70CF80C2E1AF3
:1004F000F707F70CF80CAE1AF707F70CF80C2E1BE1
:10050000F707F70CF80CAE1BF707F70CF80C8A117D
:100510000A12C42B0B08AE008B13831603178C171B
:100520000C140000000083120313AE1B8B1703187A
:10053000C12A03170C087F390313AE0003170D08F7
:100540000313AF0003170F080313B0002E08B30006
:1005500070212F0803178D000313300803178F0035
:1005600003130B08B1008B13831603178C170C149D
:100570000000000083120313B11B8B17AD0BC12ABF
:10058000E02A03170C0D0E0D7F390313AE0003177D
:100590000D080313AF0003170F080313B0002E0854
:1005A000B30070212F0803178D00031330080317C1
:1005B0008F008D0A03198F0A03100313AD0B8A2ACB
:1005C00008003408F80133020318E92A3308F70059
:1005D000F52AF7010830B500B30DF70D340877029E
:1005E0000318F700F80DB50BEC2A080020302E1E7A
:1005F0003030AF002D08F700AD1F062BF709F70AC2
:100600007708AD002D30AF00AE172E142D08B300C3
:100610006430B400E1227708AD0030307807B000D4
:100620002D08B3000A30B400E12230307707B20061
:1006300030307807B1002F08F7003030300203194E
:10064000252BAE14AE1B2E15392B2F08B0002030F1
:10065000AF00303031020319312B2E14AE1BAE1413
:10066000392B031D2E14031D392B3008B100203007
:10067000B0002E19402BAE18432B2E18462B492BB9
:100680002F08B30070213008B30070213108B30087
:1006900070213208B3007021080003081F3983005D
:1006A000FF30A400A601A50183161F149F141F1577
:1006B0009F1107309C0083138312A0012110A20117
:1006C000A30183161F149F141F159F1183121F105F
:1006D0008316091283129412A41224088316870029
:1006E000831224162408831687008312A411240879
:1006F0008316870001308312940000308316940023
:1007000083129001F80092000030831692000730A7
:100710009C00050885000330F700F70B8D2B1C08A3
:1007200083120D1383169D018113831215295B29F2
:10073000A410240883168700831287141830031727
:100740008D0000308F0003139C21A801A901AA018C
:10075000AB012C102C15F2297808A700A708031963
:100760003D2C2C1D282C27082F3C0318CD2B2708A7
:10077000393C031CCD2B2808043C031CCC2B290836
:10078000AD000A30AE00632A303027027807A90096
:100790002708B3007021A80A272C2708233C031D33
:1007A0000C2CA80803190B2C2908AA0024142408CF
:1007B0008316870083122C1007182C142C11A410F8
:1007C00024088316870083128714203003178D00B6
:1007D00000308F0003139C21AB01213003178D00E3
:1007E00000308F00031005300313AD008A222A0861
:1007F000AD001830AE00F622243003178D00003013
:100800008F00031406300313AD008A222B08AD00BD
:100810001830AE00F622272C27082A3C031D272C6F
:10082000A801A901293003178D0000308F000313A0
:100830009C210430AD00FA30B4004820AD0B1B2CD5
:100840002F3003178D0000308F0003139C213D2CA7
:1008500027082A3C031D3D2C2C15A801A901AB013A
:10086000A4102408831687008312871437300317D7
:100870008D0000308F0003139C212C19852C24142B
:100880002408831687008312AC100718AC14AC1C24
:10089000822C2C18822CAB0A3F3003178D000030BD
:1008A0008F0003139C21403003178D0000308F0010
:1008B000031005300313AD008A222A08AD0018305A
:1008C000AE00F622433003178D0000308F00031472
:1008D00006300313AD008A222B08AD001830AE009D
:1008E000F6222A082B02031D7C2CA4102408831650
:1008F000870083128710822CA41024088316870097
:0E090000831287142C10AC182C14AB2B630040
:02400E000A2F77
:00000001FF
;PIC16F877A
;CRC=8D74  CREATED="25-Aug-26 10:11"
