:1000000010308A00002800000A108A100A118207A6
:100010003134323433342B343434353436342D34B3
:100020003734383439342A342E34303423342F34AE
:100030000C000C00D232731D00014539F2373A0032
:10004000C434F634F3306F10F0377210FA32F237EE
:1000500000014539F2373A004F3B65396636EF3BD0
:1000600000010C000C00C830840083130008031941
:1000700047280130F800F701F70B3C28F80B3B2824
:100080004A30F700F70B42284528800B3928080032
:1000900083164F184F288312081251288316831293
:1000A000081683160812CF185928831288115B2866
:1000B000831683128815831688114F1963288312BB
:1000C0000811652883168312081583160811CF19A5
:1000D0006D28831288106F28831683128814831664
:1000E00088100000831288168316881277288312DE
:1000F000881283168812831208008316D00108160E
:1001000000308312081A01308316D004881500309D
:10011000831288190130F7000310F70D7708831652
:10012000D00408150030831208190130F700F70DCC
:10013000F70DFC30F70577088316D00488140030DB
:10014000831288180130F700F70DF70DF70DF8301E
:10015000F70577088316D0045008F80083120800CA
:100160008316881288130813831288138316881342
:1001700008168815081588148312081783160813A3
:1001800000008312881683168812000083127D20D7
:1001900078088316CF008312881283168812000015
:1001A0008312881683168812000083127D20780837
:1001B0008316CE00831288128316881208128811C3
:1001C000081188104F0EF700F030F70577084E043D
:1001D000F8007808CE00CE1BB828CC08031DF42800
:1001E00083128813F62883168312881783168813C0
:1001F000000083120813831608130000831288126C
:10020000831688124D0ECE000F30CE054E08CF005B
:100210008312482083164D080F39CE00CF00831279
:100220004820080028308316BB000C30BC00013089
:10023000BD000630BE008312881283168812831216
:100240008813831688138312081383160813081261
:100250008811081188108812881308130F30C800FD
:100260008312332001308316BA003A08033C031C82
:1002700045290330CF008312482005308316C8007B
:10028000831233208316BA0A35290230CF00831235
:10029000482005308316C800831233208316BA0124
:1002A0003A08033C031C6229BB303A0784008313DD
:1002B0000008BF00CC013F08CD008312B020831698
:1002C000BA0A502983128A110A16AF288A110A160F
:1002D000B228F50175080F3C031C7A2924307507F4
:1002E00084008313800134307507840083138001F8
:1002F000F50A6A29EC01ED01FF30EE00EF00EA019A
:10030000A110F301F201F101F001FE01FD01FC0178
:10031000FB018316A301A201A101A001A701A6016F
:10032000A501A401AB01AA01A901A801AF01AE0179
:10033000AD01AC0183122111EB0108008316490BBA
:10034000A229A5294030CA00A629CA0101304802C5
:10035000CA074A088038CB00CC014B08CD00831275
:10036000B020080083164708073A83120319C229F0
:100370000B3A0319C929063A0319D529023A031978
:10038000DD29E42901308316C800C90083129E21AB
:10039000EB298316CC010130CD008312B02002304E
:1003A0008316C80083123320EB2901308316C8005E
:1003B0000230C90083129E21EB298316CC01103034
:1003C000CD008312B020EB2901308316CC00470802
:1003D000CD008312B02008000B088316BA008312E8
:1003E0008B13831603178C170C14000000000313E3
:1003F000BA1FFD2983128B178316831203170C086B
:100400007F3903195E2A83160313BA008312031778
:100410000D0883160313BB00831203170F088316FE
:100420000313BC003A08C7008312B22183163B08AD
:10043000831203178D00831603133C0883120317DE
:100440008F0003130B088316BD0083128B138316D2
:1004500003178C170C14000000000313BD1F332A70
:1004600083128B178316831203170C0D0E0D7F3921
:1004700003195E2A83160313BA00831203170D08AB
:1004800083160313BB00831203170F08831603138D
:10049000BC003A08C7008312B22183163B088312BE
:1004A00003178D00831603133C08831203178F0074
:1004B0008D0A03198F0A0313EC290317031308008D
:1004C0008316BA018312A00A2008213C0318CE2A01
:1004D0002308FC3E0318852A043ED72AEF308316F2
:1004E000860083128600852ADF30831686008312F9
:1004F0008600852ABF308316860083128600852AEF
:100500007F308316860083128600211C932A0608FA
:100510000F390F3C031D922A211022088316BA00BE
:100520008312A201CD2A06080F390F3C0319C82AED
:1005300006080139031DA02A8316BB01B92A8312BC
:1005400006080239031DA92A01308316BB00B92A07
:10055000831206080439031DB22A02308316BB0039
:10056000B92A831206080839031DBA2A03308316F4
:10057000BB00831283163B0DF700F70DFC30F70527
:100580007708831223070420F800A2002114CD2A43
:10059000A30A2308043C0319A301A001FF3083161A
:1005A00086003A08F80083128A110A16C1280A1038
:1005B0008A140A1182076E2A742A7A2A802A8318DA
:1005C000E42ACF3084008313F701F801F901FA011E
:1005D0008316CF01D001D101D2014E084D044C0445
:1005E0004B040319232B2030D3000310C70DC80D73
:1005F000C90DCA0DCF0DD00DD10DD20D4E0852022E
:10060000031D0C2B4D085102031D0C2B4C085002EE
:10061000031D0C2B4B084F02031C1D2B4B08CF0254
:100620004C08031C4C0FD0024D08031C4D0FD10287
:100630004E08031C4E0FD2020314F70DF80DF90DEE
:10064000FA0DD30BF52A4F088000840A5008800069
:10065000840A51088000840A52088000831208002E
:1006600020308316C600C201C301C401C5013D0884
:10067000FA003C08F9003B08F8003A08F7000310BC
:10068000771C502B3E08C2073F0803183F0FC307D3
:1006900040080318400FC40741080318410FC5075D
:1006A000C50CC40CC30CC20CFA0CF90CF80CF70CFA
:1006B000C60B3F2B8312080083163A082B3A83128D
:1006C00003196C2B063A03199E2B073A0319BB2B0F
:1006D000053A0319052C192C83163F08FF3CF70037
:1006E000FF30F8004008031C400FF802FF30F9000B
:1006F0004108031C410FF9027F30FA004208031C35
:10070000420FFA027A083E02031C982B031D9A2B13
:1007100079083D02031C982B031D9A2B78083C0294
:10072000031C982B031D9A2B3B087702031C9A2B62
:1007300000309B2B0130F8001C2C831283163E08DE
:100740004202031CB52B031DB72B3D084102031CBD
:10075000B52B031DB72B3C084002031CB52B031D12
:10076000B72B3F083B02031CB72B0030B82B0130DE
:10077000F8001C2C83128316BB08031DC82BBC0871
:10078000031DC82BBD08031DC82BBE080319D42B9D
:10079000BF08031DD72BC008031DD72BC108031D9D
:1007A000D72BC208031DD72B0030F8001C2C831058
:1007B0007F30CA00FF30C900C800C7004208CE0021
:1007C0004108CD004008CC003F08CB008312DF2257
:1007D0007A0883163E02031CFF2B031D012C7908A7
:1007E0003D02031CFF2B031D012C78083C02031C57
:1007F000FF2B031D012C3B087702031C012C00304A
:10080000022C0130F8001C2C83128316BF08031D34
:10081000152CC008031D152CC108031D152CC2087A
:10082000031D152C0130F8001C2C0030F8001C2C86
:1008300083120030F800831683128A110A16242AC4
:100840008E30F70083163F08F8003E08F900FA01E1
:10085000F808031D352C7908F800F9010830F70273
:10086000F808031D352CF7013D2C0310F81B3C2C18
:10087000F90DF80DF703352CF813831208008030BA
:10088000831C452C8316C80683128316CD01CE0126
:100890004408CC004808CC0643080319332DCB008C
:1008A000F700470803193C2DCB020319D82C031C71
:1008B000962C4808D100D1174908D0004A08CF002B
:1008C000CE010310D10CD00CCF0CCE0CCB0B602C76
:1008D000CC1F6D2C4D14502D4D104B104D16C630A5
:1008E00084008313652D4D12CC1B802C4B1C8B2C4C
:1008F000D10CD00CCF0CCE0CF70A03194B2D8B2C3E
:10090000D11B8E2C0310CE0DCF0DD00DD10DF703C2
:1009100003194B2D802C4D17F82C4D134408CC0097
:10092000CC1F942CD117442DD113442D4708CB0054
:10093000F7004308CB024408D100D1174508D00086
:100940004608CF00CE010310D10CD00CCF0CCE0C3A
:10095000CB0BA22CCC1FAF2CCD14502DCD104B1097
:10096000CD16CA3084008313652DCD12CC1BC22C4A
:100970004B1CCD2CD10CD00CCF0CCE0CF70A03198C
:100980004B2DCD2CD11BD02C0310CE0DCF0DD00D67
:10099000D10DF70303194B2DC22CCD17F82CCD1315
:1009A0004808CC00CC1FD62CD117442DD113442D90
:1009B0004808D100D1174908D0004A08CF00CC1F01
:1009C000E52CD1134D15502D4D11CE014B10C630D5
:1009D00084008313652DCC1B0E2D4408CC004B1CCA
:1009E000F82CD10CD00CCF0CCE0CF70A03194B2DE0
:1009F000CE1F092DCF0A031D092DD00A031D092D75
:100A0000D10A031D092DD10CD00CCF0CF70A031904
:100A10004B2D4D1B8D2CCD1BCF2C2D2D8030D10679
:100A2000D11F162D502D4808CC00232D4408CC0092
:100A3000D108031D232DD008031D232DCF08031D2E
:100A4000232DF701442DD11B2D2D0310CE0DCF0DDD
:100A5000D00DD10DF70B232D4B2DCC1F312DD117E0
:100A6000442DD113442D4708F7004808D100490808
:100A7000D0004A08CF00442D4308F7004408D100B5
:100A80004508D0004608CF005108F8005008F9008A
:100A90004F08FA00832DF701F801F901FA01832DBF
:100AA000CE01CF09D009D109CE09CE0A031D5E2D92
:100AB000CF0A031D5E2DD00A0319D10A4D186C2CE4
:100AC000CD18AE2C4D19E42C132D0008CF07031CB4
:100AD0006F2DD00A031D6F2DD10A03194B14840307
:100AE0000008D007031C772DD10A03194B14840387
:100AF0000008801F803AD10703184B144D1A732C3D
:100B0000CD1AB52CEB2C8312080083164308031969
:100B10004B2ECF00470803194B2ECF02031C952DF7
:100B20007F30CF0703184B2E9B2D8130CF02031C43
:100B30004B2E03194B2E4F08F700F801F901FA016B
:100B4000CE014408CD00CD174508CC004608CB00A7
:100B50001930CF004A08CB020318BE2D0130CC0259
:100B60000318BE2DCD020318BE2DCE020318BE2DD4
:100B7000CE0ACD0ACC0A4A08CB07F02D4908CC0290
:100B80000318D92D0130CD020318D92DCE02031838
:100B9000D92DCE0ACD0A4908CC074A08CB07031C39
:100BA000F02DCC0A031DF02DCD0A031DF02DCE0A29
:100BB000F02D48088038CD020318EF2D0130CE0209
:100BC0000318EF2DCE0A48088038CD074908CC0716
:100BD000031CCD2DCD0A031DCD2DCE0ACD2D7A14AB
:100BE000CF0BF32DFE2D0310CB0DCC0DCD0DCE0D67
:100BF0000310FA0DF90DF80DD00DAA2D501C062E7C
:100C00000310F80CF90CFA0CD00C092EF703031999
:100C10004B2ED01B322E0310CB0DCC0DCD0DCE0D97
:100C20004A08CB0203181E2E0130CC0203181E2ED8
:100C3000CD0203181E2ECE02031C412E4908CC0201
:100C40000318292E0130CD020318292ECE02031CD1
:100C5000412E48088038CD020318322E0130CE02D2
:100C6000031C412EFA0A031D412EF90A031D412ED1
:100C7000F80A031D412EF70A03194B2EF80CF90C44
:100C8000FA0C4408CF004808CF06CF1F492EF817AA
:100C90004F2EF8134F2EF701F801F901FA018312D4
:100CA000080083164808CF004C08CF06CF1F5D2EE2
:100CB00003110310C81B0314902E4808CF004B08E3
:100CC000D0004708D00203196B2ECF1F902E0308C7
:100CD000013A8300902E4C08D0004808D002031936
:100CE000772ECF1F902E0308013A8300902E4D08D7
:100CF000D0004908D0020319832ECF1F902E03087D
:100D0000013A8300902E4E08D0004A08D002031901
:100D10008F2ECF1F902E0308013A8300902E0310D0
:100D200083120800831647080319032FCF004B08CE
:100D30000319032FCF070318A42E7F30CF02031C03
:100D4000032F0319032FA82E8130CF070318032F79
:100D50004F08F700F801F901FA014808D300D3174A
:100D60004908D2004A08D1001830CF00D001511CE8
:100D7000D12E4E08FA07031CC32EF90A031DC32EF9
:100D8000F80A0319D0174D08F907031CCA2EF80AF0
:100D90000319D0174C08C900C9174908F8070318E8
:100DA000D017D00DF80CF90CFA0CD30CD20CD10CD6
:100DB0000310CF0BB62E0130F7070318032FF81BD3
:100DC000E82ED30DFA0DF90DF80DF7030319032FD3
:100DD000D31FF92EFA0A031DF92EF90A031DF92E65
:100DE000F80A031DF92EF80CF90CFA0CF70A03198E
:100DF000032F4808D0004C08D006D01F012FF81749
:100E0000072FF813072FF701F801F901FA018312F0
:100E1000080083163A082B3A83120319192F063A51
:100E200003194D2F073A0319652F053A0319B52FFA
:100E3000F42F83149E308316C600C930C5007F305E
:100E4000C400FE30C3003E08CA003D08C9003C088B
:100E5000C8003B08C70083123F247A088316C600E7
:100E60007908C5007808C4007708C3004608CA009E
:100E70004508C9004408C8004308C7004208CE001E
:100E80004108CD004008CC003F08CB00831251261A
:100E9000003003180130F800F62F83163E08CA0010
:100EA0003D08C9003C08C8003B08C7004208CE0006
:100EB0004108CD004008CC003F08CB0083125126EA
:100EC000003003180130F800F62F83163E08CA00E0
:100ED0003D08C9003C08C8003B08C700CE01CD0151
:100EE000CC01CB01831251260319872F83164208A8
:100EF000CA004108C9004008C8003F08C700CE0129
:100F0000CD01CC01CB0183125126031D8A2F003065
:100F1000F800F62F9E308316C600C930C5007F301A
:100F2000C400FE30C3004208CA004108C90040089E
:100F3000C8003F08C700831285257A088316CA00B7
:100F40007908C9007808C8007708C7003E08CE00B5
:100F50003D08CD003C08CC003B08CB008312512655
:100F6000003003180130F800F62F83164208CA003B
:100F70004108C9004008C8003F08C700CE01CD01A4
:100F8000CC01CB0183125126031DC92F0130F8007B
:100F9000F62F9E308316CA00C930C9007F30C800C2
:100FA000FE30C7004208CE004108CD004008CC000A
:100FB0003F08CB00831292267A088316CA0079086C
:100FC000C9007808C8007708C7003E08CE003D0871
:100FD000CD003C08CC003B08CB00831251260030EA
:100FE00003180130F800F62F0030F8008A110A16B5
:020FF000932D3F
:1010000004088316BE00BD1F1228BE03BE16BA090F
:10101000BB09BC09BD09BA0A0319BB0A0319BC0AFA
:101020000319BD0A3B30C5009A30C400CA30C30062
:10103000C2010A30C0008314BA30840083133D0813
:10104000CA003C08C9003B08C8003A08C700450868
:10105000CE004408CD004308CC004208CB008A11E2
:101060008312DF228A157808F708031D4E2883169D
:101070004008013A031D3E2883124E283E080319FA
:1010800051280F3940020319472803187928BE1B3D
:1010900079283E1B51282030712883122030831676
:1010A000BE05BE1E6028BE127708BE002D30C700E8
:1010B0008A118312B2218A1583163E08F700BE01F9
:1010C0003030BE1E7128BE127708BE002D30C7001A
:1010D0008A118312B2218A1583163E08F700BE01D9
:1010E0003030F7077708C7008A118312B2218A15BA
:1010F000831683104508CA004408C9004308C80085
:101100004208C700CE01CD01CC010A30CB008A11C4
:101110008312DF228A157A088316C5007908C40075
:101120007808C3007708C200C00B1B2883128A11FD
:101130000A167E2E04088316BF003E08C10003195C
:10114000BE283D08CA003C08C9003B08C8003A0850
:10115000C700CE01CD012030CC008230CB008A11F7
:10116000831292268A157A088316BD007908BC007E
:101170007808BB007708BA00C10BA1283D08CA0057
:101180003C08C9003B08C8003A08C7004708B63CFD
:10119000C700FA014808CB00C8170310C80CC90CD7
:1011A000CA0CFA0CF90CF80CF70CC70BCD28CB1FA6
:1011B000E428F709F809F909FA09F70A0319F80AFE
:1011C0000319F90A0319FA0A7A08BD007908BC0064
:1011D0007808BB007708BA00BD1FFB28BF03BF1605
:1011E000BA09BB09BC09BD09BA0A0319BB0A03192C
:1011F000BC0A0319BD0A3B30C6009A30C500CA308C
:10120000C400C3010A30C1003E080319BF0A831499
:10121000BA30840083133D08CA003C08C9003B086B
:10122000C8003A08C7004608CE004508CD0044086B
:10123000CC004308CB008A118312DF228A1578087C
:10124000F708031D3A2983163E0A4102031D2A2985
:1012500083123A293F0803193D290F394102031926
:10126000332903187D29BF1B7D293F1B3D292030D1
:101270007529831220308316BF05BF1E4F29BF1268
:101280003E08031DBF037708BF002D30C7008A1139
:101290008312B2218A1583163F08F700BF013E086A
:1012A0004102031D61297708BF002E30C7008A1153
:1012B0008312B2218A1583163F08F7002030BF053C
:1012C00000303030BF1E7529BF123E08031DBF031A
:1012D0007708BF002D30C7008A118312B2218A150A
:1012E00083163F08F700BF013030F7077708C700C3
:1012F0008A118312B2218A15831683104608CA0008
:101300004508C9004408C8004308C700CE01CD0104
:10131000CC010A30CB008A118312DF228A157A08A9
:101320008316C6007908C5007808C4007708C30092
:10133000C10B072983128A110A16922E80080319FD
:10134000BC298316BB010408BA003B10831B3B1465
:101350000008C7008A118312B2218A1583163A0841
:10136000840083133B188317840A031DBA29831250
:0A137000850A831683129E290800E7
:1020000003081F398300EA01A110EB01EC01ED0187
:10201000FF30EE00EF00F301F201F101F001FE01EB
:10202000FD01FC01FB018316A301A201A101A00196
:10203000A701A601A501A401AB01AA01A901A8015C
:10204000AF01AE01AD01AC01831221118316B500C1
:10205000B701B6011F149F141F159F1107309C0074
:1020600083138312A0012110A201A301A401A501E1
:10207000A601A701A801A901AA01AB01AC01AD010C
:10208000AE01AF01B001B101B201B301B401B501BC
:10209000B601B701B801B901BA01BB01BC01BD016C
:1020A000BE01BF01C001C101C201C301C401C5011C
:1020B000C601C701C801C901CA01CB01CC01CD01CC
:1020C000CE01CF01D001D101D201D301D401D5017C
:1020D000D601D701D801D901DA01DB01DC01DD012C
:1020E000DE01DF01E001E101E201E301E401E501DC
:1020F000E601E701E801E90183161F149F141F158B
:102100009F1183121F1083160912831294128316D3
:10211000B51235088700351635088700B511350822
:1021200087000130831294000030831694008312DC
:102130009001F800920000308316920007309C0056
:10214000050885000330F700F70BA4281C0883124C
:102150000D1383169D0181130A12831212290A1688
:102160000A1266290A160A1269210A16183003177C
:102170008D0000308F000A120313EC210A160A1298
:10218000602A0A167808F400F4080319FB2F0130BE
:102190008316C8000A12831233200A167408233CDF
:1021A000031DFD2E21116E08FF3C031DDA286F0868
:1021B000FF3C031D21152119BF2A83163910F30195
:1021C000F201F101F001F50183126C0875020318A8
:1021D00069298316391CEE28831269292430750772
:1021E0008400831330300002B8003808FF3CBA0086
:1021F000FF30BB000030031C0130BB02FF30BC00CD
:102200000030031C0130BC027F30BD000030031CD5
:102210000130BD0283103D08CA003C08C9003B08DC
:10222000C8003A08C700CE01CD01CC010A30CB006E
:102230000A128312DF220A167A087302031C362957
:10224000031D322979087202031C3629031D322925
:1022500078087102031C3629031D322970087702A1
:1022600003183629831639146629831273088316D6
:10227000BD007208BC007108BB007008BA00C10143
:10228000C001BF010A30BE000A12831230230A16B1
:102290007A088316BD007908BC007808BB0077086F
:1022A000BA0038083A07F0003B08F1000030031884
:1022B0000130F1073C08F200003003180130F2074A
:1022C0003D08F300003003180130F307F50AE42855
:1022D0008312FE01FD01FC01FB01F5016D08750291
:1022E0000318F2298316391C77298312F229343016
:1022F00075078400831330300002B8003808FF3CB3
:10230000BA00FF30BB000030031C0130BB02FF30BD
:10231000BC000030031C0130BC027F30BD00003027
:10232000031C0130BD0283103D08CA003C08C900EF
:102330003B08C8003A08C700CE01CD01CC010A30E5
:10234000CB000A128312DF220A167A087E02031CCF
:10235000BF29031DBB2979087D02031CBF29031D6A
:10236000BB2978087C02031CBF29031DBB297B08FD
:1023700077020318BF2983163914EF2983127E08C8
:102380008316BD007D08BC007C08BB007B08BA003A
:10239000C101C001BF010A30BE000A1283123023FE
:1023A0000A167A088316BD007908BC007808BB00BD
:1023B0007708BA0038083A07FB003B08FC000030F9
:1023C00003180130FC073C08FD0000300318013001
:1023D000FD073D08FE00003003180130FE07F50A36
:1023E00083126E298316391CFA2902308312EB00FE
:1023F000BE2A831683126A082F3C031D0E2AFB088F
:10240000031D0E2AFC08031D0E2AFD08031D0E2ABB
:10241000FE08031D0E2A0130EB00BE2A6A0883164F
:10242000BA007308BE007208BD007108BC007008D5
:10243000BB007E08C2007D08C1007C08C0007B088C
:10244000BF000A1283125C2B0A16F80803192B2A04
:102450000230EB00BE2A6A082B3A0319392A063AE1
:102460000319502A073A0319672A053A0319862ADD
:10247000A72A7B0870078316A0007108A1007C08BA
:1024800003187C0FA1077208A2007D0803187D0FB6
:10249000A2077308A3007E0803187E0FA307BD2AB6
:1024A0007B0870028316A0007108A1007C08031C41
:1024B0007C0FA1027208A2007D08031C7D0FA202FE
:1024C0007308A3007E08031C7E0FA302BD2A7308B5
:1024D0008316BD007208BC007108BB007008BA000A
:1024E0007E08C1007D08C0007C08BF007B08BE00DC
:1024F0000A12831230230A167A088316A300790879
:10250000A2007808A1007708A000BD2A83107308F4
:102510008316CA007208C9007108C8007008C70095
:102520007E08CE007D08CD007C08CC007B08CB0067
:102530000A128312DF220A167A088316A30079088A
:10254000A2007808A1007708A000BD2A83127B08AA
:1025500070078316A0007108A1007C0803187C0F87
:10256000A1077208A2007D0803187D0FA207730857
:10257000A3007E0803187E0FA3078312472E83163D
:10258000B91083126E08FF3C031DC82A6C08C92AC3
:102590006E088316B400A701A601A501A401F501E8
:1025A0003408750203188B2B2430750784008313BD
:1025B00030300002BF01BE000A12831220240A1626
:1025C0008316BB010408BA003B10831B3B14831421
:1025D0009E30C600C930C5007F30C400FE30C30045
:1025E0007A08CA007908C9007808C8007708C700C7
:1025F0000A1283123F240A1683163A0884008313B2
:102600003B1883177A08BF007908BE007808BD0020
:102610007708BC003F08C6003E08C5003D08C4005E
:102620003C08C300CA01C9012030C8008230C7007D
:102630000A12831285250A167A088316CA007908B9
:10264000C9007808C8007708C7002708CE00260808
:10265000CD002508CC002408CB000A128312512695
:102660000A16031C372B8316B9148B2B831283167F
:102670002708CA002608C9002508C8002408C70082
:10268000CE01CD012030CC008230CB000A12831263
:1026900092260A167A088316BD007908BC007808CD
:1026A000BB007708BA0024307507840083133030EC
:1026B0000002BF01BE000A12831220240A168316EC
:1026C000BF010408BE003F10831B3F1483103D0868
:1026D000C6003C08C5003B08C4003A08C3007A089D
:1026E000CA007908C9007808C8007708C7000A122C
:1026F00083123F240A1683163E08840083133F1872
:1027000083177A08A7007908A6007808A50077083B
:10271000A400F50AD02A83126E08FF3C03190E2C80
:102720008316B91C952B83120E2CCD30B300CC3000
:10273000B2004C30B1007B30B00083126E08F5005F
:102740006C08750203180E2C24307507840083135F
:10275000303000028316BF01BE000A12831220240B
:102760000A167A088316CA007908C9007808C800D2
:102770007708C7003308CE003208CD003108CC00FE
:102780003008CB000A12831292260A168316BB0168
:102790000408BA003B10831B3B1483102708C600B3
:1027A0002608C5002508C4002408C3007A08CA000A
:1027B0007908C9007808C8007708C7000A12831290
:1027C0003F240A1683163A08840083133B188317A4
:1027D0007A08A7007908A6007808A5007708A40061
:1027E0003308C6003208C5003108C4003008C300F1
:1027F000CA01C9012030C8008230C7000A12831202
:1028000085250A167A088316B3007908B20078087D
:10281000B1007708B000F50A8312A02B6F08FF3CC7
:10282000031D142C6D08152C6F088316B400AB0122
:10283000AA01A901A801F501340875020318D72CD3
:10284000343075078400831330300002BF01BE00AE
:102850000A12831220240A168316BB010408BA0048
:102860003B10831B3B1483149E30C600C930C50047
:102870007F30C400FE30C3007A08CA007908C9005E
:102880007808C8007708C7000A1283123F240A1686
:1028900083163A08840083133B1883177A08BF0015
:1028A0007908BE007808BD007708BC003F08C60064
:1028B0003E08C5003D08C4003C08C300CA01C90168
:1028C0002030C8008230C7000A12831285250A16FC
:1028D0007A088316CA007908C9007808C800770802
:1028E000C7002B08CE002A08CD002908CC002808F4
:1028F000CB000A12831251260A16031C832C83165E
:10290000B914D72C831283162B08CA002A08C900D1
:102910002908C8002808C700CE01CD012030CC000E
:102920008230CB000A12831292260A167A08831686
:10293000BD007908BC007808BB007708BA003430C5
:1029400075078400831330300002BF01BE000A12F5
:10295000831220240A168316BF010408BE003F100C
:10296000831B3F1483103D08C6003C08C5003B088C
:10297000C4003A08C3007A08CA007908C900780878
:10298000C8007708C7000A1283123F240A1683166C
:102990003E08840083133F1883177A08AB00790838
:1029A000AA007808A9007708A800F50A1C2C831251
:1029B0006F08FF3C03195A2D8316B91CE12C8312B2
:1029C0005A2DCD30B300CC30B2004C30B1007B304A
:1029D000B00083126F08F5006D08750203185A2DB8
:1029E0003430750784008313303000028316BF0132
:1029F000BE000A12831220240A167A088316CA001F
:102A00007908C9007808C8007708C7003308CE00E5
:102A10003208CD003108CC003008CB000A128312F6
:102A200092260A168316BB010408BA003B10831BCA
:102A30003B1483102B08C6002A08C5002908C400CF
:102A40002808C3007A08CA007908C9007808C800B5
:102A50007708C7000A1283123F240A1683163A0821
:102A6000840083133B1883177A08AB007908AA0007
:102A70007808A9007708A8003308C6003208C50006
:102A80003108C4003008C300CA01C9012030C800A1
:102A90008230C7000A12831285250A167A08831627
:102AA000B3007908B2007808B1007708B000F50AE1
:102AB0008312EC2C8316B91C622D02308312EB00BA
:102AC000472E831683126A082F3C031D7D2D831623
:102AD0002B08CA002A08C9002908C8002808C7000E
:102AE000CE01CD01CC01CB010A12831251260A1668
:102AF000031D7D2D0130EB00472E6A088316BA00B6
:102B00002708BE002608BD002508BC002408BB001D
:102B10002B08C2002A08C1002908C0002808BF00ED
:102B20000A128312092F0A16F80803199A2D023087
:102B3000EB00472E6A082B3A0319A82D063A031911
:102B4000C82D073A0319E82D053A0319072E272E39
:102B5000831083162708C6002608C5002508C40070
:102B60002408C3002B08CA002A08C9002908C80085
:102B70002808C7000A1283123F240A167A0883160F
:102B8000AF007908AE007808AD007708AC00462E9B
:102B9000831483162708C6002608C5002508C4002C
:102BA0002408C3002B08CA002A08C9002908C80045
:102BB0002808C7000A1283123F240A167A088316CF
:102BC000AF007908AE007808AD007708AC00462E5B
:102BD00083162708CA002608C9002508C80024084B
:102BE000C7002B08CE002A08CD002908CC002808F1
:102BF000CB000A12831292260A167A088316AF00B7
:102C00007908AE007808AD007708AC00462E831630
:102C10002708C6002608C5002508C4002408C300EC
:102C20002B08CA002A08C9002908C8002808C700BC
:102C30000A12831285250A167A088316AF007908CE
:102C4000AE007808AD007708AC00462E83128310E2
:102C500083162708C6002608C5002508C4002408D6
:102C6000C3002B08CA002A08C9002908C800280880
:102C7000C7000A1283123F240A167A088316AF008F
:102C80007908AE007808AD007708AC0083121930DF
:102C900003178D0000308F000A120313EC210A166F
:102CA000EB08031D952E01308316C800C9000A12D7
:102CB00083129E210A161A3003178D0000308F00F0
:102CC0000A120313EC210A1601308316C8000230E1
:102CD000C9000A1283129E210A162119812E413041
:102CE000840083162308BD002208BC002108BB0015
:102CF0002008BA000A128A15831200280A168A11BF
:102D0000942E8930840083162F08BD002E08BC0045
:102D10002D08BB002C08BA000530BE000A128A1527
:102D200083129A280A168A11E22E6B0BBB2E0130F1
:102D30008316C800C9000A1283129E210A161D308C
:102D400003178D0000308F000A120313EC210A16BE
:102D500001308316C8000230C9000A1283129E2176
:102D60000A16203003178D0000308F000A1203135B
:102D7000EC210A16E22E6B08023C031DE22E013004
:102D80008316C800C9000A1283129E210A16293030
:102D900003178D0000308F000A120313EC210A166E
:102DA00001308316C8000230C9000A1283129E2126
:102DB0000A162C3003178D0000308F000A120313FF
:102DC000EC210A160C308316BA00FA30C8000A1239
:102DD000831233200A168316BA0BE52E0A128312C9
:102DE00069210A16313003178D0000308F000A1256
:102DF0000313EC210A16BF285E2F74082B3C03191D
:102E00000D2F74082D3C03190D2F74082A3C03194B
:102E10000D2F74082F3C031D132FA118122F7408B7
:102E2000EA00A1145E2F74082E3C031D2F2FA11859
:102E3000242F6E08FF3C031D232F6C080F3C031C3E
:102E4000232F6C08EE002E2F6F08FF3C031D2E2F42
:102E50006D080F3C031C2E2F6D08EF005E2F7408C9
:102E60002F3C03185E2F7408393C031C5E2FA118F9
:102E70004C2F6E08FF3C03193F2F0130402F0030CC
:102E80006C070F3C031C4B2F24306C07840083130A
:102E900074088000EC0A5E2F6F08FF3C0319522F64
:102EA0000130532F00306D070F3C031C5E2F343070
:102EB0006D078400831374088000ED0AF601F501A4
:102EC00075086C02031C8F2F6E087502031D732F8B
:102ED0006E08FF3C0319732F443076078400831378
:102EE0002E308000F60A6C08750203188D2F4430CE
:102EF00076078316BA00BB010318BB0A2430750796
:102F0000840083130008BC003A08840083133B1834
:102F100083173C088000F60A8312F50A602F4430BC
:102F20007607840083138001F601F50175086D02B0
:102F3000031CC52F6F087502031DA92F6F08FF3CE6
:102F40000319A92F57307607840083132E30800091
:102F5000F60A6D0875020318C32F573076078316DB
:102F6000BA00BB010318BB0A343075078400831311
:102F70000008BC003A08840083133B1883173C0800
:102F80008000F60A8312F50A962F573076078400E0
:102F900083138001323003178D0000308F000A1236
:102FA0000313EC210A1601308316C800C9000A1267
:102FB00083129E210A164430840083130A128A1554
:102FC0009E210A168A1101308316C8000230C900FA
:102FD0000A1283129E210A165730840083130A12A4
:102FE0008A159E210A168A1164308316C8000A12B7
:0A2FF000831233200A16BF28630085
:02400E000A2F77
:00000001FF
;PIC16F877A
;CRC=6F69  CREATED="11-Aug-26 14:03"
