:1000000010308A00002800000A108A100A118207A6
:100010003134323433342B343434353436342D34B3
:100020003734383439342A342E34303423342F34AE
:100030000C000C00D232731D00014539F2373A0032
:10004000C434F634F3306F10F0377210FA32F237EE
:1000500000014539F2373A004F3B65396636EF3BD0
:1000600000010C000C00C030840083130008031949
:1000700047280130F800F701F70B3C28F80B3B2824
:100080004A30F700F70B42284528800B3928080032
:10009000831647184F28831208125128831683129B
:1000A000081683160812C7185928831288115B286E
:1000B00083168312881583168811471963288312C3
:1000C0000811652883168312081583160811C719AD
:1000D0006D28831288106F28831683128814831664
:1000E00088100000831288168316881277288312DE
:1000F000881283168812831208008316C801081616
:1001000000308312081A01308316C80488150030A5
:10011000831288190130F7000310F70D7708831652
:10012000C80408150030831208190130F700F70DD4
:10013000F70DFC30F70577088316C80488140030E3
:10014000831288180130F700F70DF70DF70DF8301E
:10015000F70577088316C8044808F80083120800DA
:100160008316881288130813831288138316881342
:1001700008168815081588148312081783160813A3
:1001800000008312881683168812000083127D20D7
:1001900078088316C700831288128316881200001D
:1001A0008312881683168812000083127D20780837
:1001B0008316C600831288128316881208128811CB
:1001C00008118810470EF700F030F705770846044D
:1001D000F8007808C600C61BB828C408031DF42818
:1001E00083128813F62883168312881783168813C0
:1001F000000083120813831608130000831288126C
:1002000083168812450EC6000F30C6054608C70083
:1002100083124820831645080F39C600C700831291
:100220004820080028308316B3000C30B400013099
:10023000B5000630B6008312881283168812831226
:100240008813831688138312081383160813081261
:100250008811081188108812881308130F30C00005
:100260008312332001308316B2003208033C031C92
:1002700045290330C7008312482005308316C0008B
:10028000831233208316B20A35290230C700831245
:10029000482005308316C000831233208316B20134
:1002A0003208033C031C6229B330320784008313F5
:1002B0000008B700C4013708C5008312B0208316B8
:1002C000B20A502983128A110A169D288A110A1629
:1002D000A028F5017508073C031C7A29243075070E
:1002E0008400831380012C30750784008313800100
:1002F000F50A6A29DC01DD01FF30DE00DF00DA01EA
:10030000A110E301E201E101E001E701E601E501FD
:10031000E401EB01EA01E901E801EF01EE01ED0181
:10032000EC01F301F201F101F001FE01FD01FC011C
:10033000FB012111DB0108008316410BA029A32931
:100340004030C200A429C20101304002C207420865
:100350008038C300C4014308C5008312B0200800E0
:1003600083163F08073A83120319C0290B3A031971
:10037000C729063A0319D329023A0319DB29E229CE
:1003800001308316C000C10083129C21E929831625
:10039000C4010130C5008312B02002308316C000B2
:1003A00083123320E92901308316C0000230C100D6
:1003B00083129C21E9298316C4011030C5008312E1
:1003C000B020E92901308316C4003F08C50083121C
:1003D000B02008000B088316B20083128B1383161B
:1003E00003178C170C14000000000313B21FFB2925
:1003F00083128B178316831203170C087F39031996
:100400005C2A83160313B200831203170D088316A8
:100410000313B300831203170F0883160313B400EA
:100420003208BF008312B0218316330883120317EA
:100430008D00831603133408831203178F000313F0
:100440000B088316B50083128B13831603178C17C2
:100450000C14000000000313B51F312A83128B1700
:100460008316831203170C0D0E0D7F3903195C2AB6
:1004700083160313B200831203170D0883160313A8
:10048000B300831203170F0883160313B400320856
:10049000BF008312B02183163308831203178D0027
:1004A000831603133408831203178F008D0A031970
:1004B0008F0A0313EA290317031308008316B201F6
:1004C0008312A00A2008213C0318CC2A2308FC3EF2
:1004D0000318832A043ED52AEF3083168600831240
:1004E0008600832ADF308316860083128600832AE3
:1004F000BF308316860083128600832A7F308316DE
:10050000860083128600211C912A06080F390F3CB1
:10051000031D902A211022088316B2008312A20123
:10052000CB2A06080F390F3C0319C62A06080139E1
:10053000031D9E2A8316B301B72A831206080239C7
:10054000031DA72A01308316B300B72A83120608B9
:100550000439031DB02A02308316B300B72A831270
:1005600006080839031DB82A03308316B300831226
:100570008316330DF700F70DFC30F705770883126B
:1005800023070420F800A2002114CB2AA30A230881
:10059000043C0319A301A001FF3083168600320832
:1005A000F80083128A110A16AF280A108A140A1159
:1005B00082076C2A722A782A7E2A20308316BE008F
:1005C000BA01BB01BC01BD013508FA003408F900CD
:1005D0003308F8003208F7000310771CFD2A3608AC
:1005E000BA0737080318370FBB0738080318380F46
:1005F000BC0739080318390FBD07BD0CBC0CBB0C78
:10060000BA0CFA0CF90CF80CF70CBE0BEC2A83129E
:10061000080083180E2BC73084008313F701F801FC
:10062000F901FA018316C701C801C901CA014608C8
:1006300045044404430403194D2B2030CB00031020
:10064000BF0DC00DC10DC20DC70DC80DC90DCA0D1E
:1006500046084A02031D362B45084902031D362B66
:1006600044084802031D362B43084702031C472B4E
:100670004308C7024408031C440FC8024508031C72
:10068000450FC9024608031C460FCA020314F70DA2
:10069000F80DF90DFA0DCB0B1F2B47088000840ACB
:1006A00048088000840A49088000840A4A088000BB
:1006B00083120800831632082B3A831203196A2B1F
:1006C000063A03199C2B073A0319D02B053A031954
:1006D0001A2C2E2C83163708FF3CF700FF30F80049
:1006E0003808031C380FF802FF30F9003908031CE2
:1006F000390FF9027F30FA003A08031C3A0FFA0268
:100700007A083602031C962B031D982B79083502B4
:10071000031C962B031D982B78083402031C962B80
:10072000031D982B33087702031C982B0030992B5C
:100730000130F800312C8312013083163707F7009F
:100740003808F800003003180130F8073908F900BC
:10075000003003180130F9073A08FA008030031816
:100760008130FA07FA1BCA2B36087A02031CCA2BFF
:10077000031DCC2B35087902031CCA2B031DCC2B7F
:1007800034087802031CCA2B031DCC2B77083302D4
:10079000031CCC2B0030CD2B0130F800312C831200
:1007A0008316B308031DDD2BB408031DDD2BB5082C
:1007B000031DDD2BB6080319E92BB708031DEC2B2D
:1007C000B808031DEC2BB908031DEC2BBA08031D58
:1007D000EC2B0030F800312C83107F30C200FF304A
:1007E000C100C000BF003A08C6003908C50038087B
:1007F000C4003708C300831209237A08831636021F
:10080000031C142C031D162C79083502031C142C10
:10081000031D162C78083402031C142C031D162CFF
:1008200033087702031C162C0030172C0130F80017
:10083000312C83128316B708031D2A2CB808031D18
:100840002A2CB908031D2A2CBA08031D2A2C0130B2
:10085000F800312C0030F800312C83120030F80001
:10086000831683128A110A169E29B630F700FA0100
:10087000F901F80183163208330434043504031DEA
:10088000432CF701502C0310F81B4F2CB20DB30D65
:10089000B40DB50DFA0DF90DF80DF70B432CF81347
:1008A000831208008E30F70083163408F8003308EE
:1008B000F900FA01F808031D672C7908F800F9011E
:1008C0000830F702F808031D672CF7016F2C03109E
:1008D000F81B6E2CF90DF80DF703672CF813831233
:1008E000080083163F080319E22CC70043080319C8
:1008F000E22CC7070318832C7F30C702031CE22CAD
:100900000319E22C872C8130C7070318E22C470813
:10091000F700F801F901FA014008CB00CB174108B4
:10092000CA004208C9001830C700C801491CB02CD1
:100930004608FA07031CA22CF90A031DA22CF80A88
:100940000319C8174508F907031CA92CF80A03194D
:10095000C8174408C100C1174108F8070318C81791
:10096000C80DF80CF90CFA0CCB0CCA0CC90C03100E
:10097000C70B952C0130F7070318E22CF81BC72C86
:10098000CB0DFA0DF90DF80DF7030319E22CCB1F6F
:10099000D82CFA0A031DD82CF90A031DD82CF80A02
:1009A000031DD82CF80CF90CFA0CF70A0319E22CE9
:1009B0004008C8004408C806C81FE02CF817E62CF9
:1009C000F813E62CF701F801F901FA018312080087
:1009D0008030831CEE2C8316C00683128316C5015B
:1009E000C6013C08C4004008C4063B080319DC2DBE
:1009F000C300F7003F080319E52DC3020319812D39
:100A0000031C3F2D4008C900C9174108C80042080F
:100A1000C700C6010310C90CC80CC70CC60CC30B19
:100A2000092DC41F162D4514F92D451043104516E8
:100A3000BE30840083130E2E4512C41B292D431C87
:100A4000342DC90CC80CC70CC60CF70A0319F42DB9
:100A5000342DC91B372D0310C60DC70DC80DC90D88
:100A6000F7030319F42D292D4517A12D45133C0833
:100A7000C400C41F3D2DC917ED2DC913ED2D3F082E
:100A8000C300F7003B08C3023C08C900C9173D0872
:100A9000C8003E08C700C6010310C90CC80CC70C2B
:100AA000C60CC30B4B2DC41F582DC514F92DC510F2
:100AB0004310C516C230840083130E2EC512C41B0A
:100AC0006B2D431C762DC90CC80CC70CC60CF70A3D
:100AD0000319F42D762DC91B792D0310C60DC70DF2
:100AE000C80DC90DF7030319F42D6B2DC517A12DE2
:100AF000C5134008C400C41F7F2DC917ED2DC913AD
:100B0000ED2D4008C900C9174108C8004208C700B8
:100B1000C41F8E2DC9134515F92D4511C60143106B
:100B2000BE30840083130E2EC41BB72D3C08C400B6
:100B3000431CA12DC90CC80CC70CC60CF70A03191D
:100B4000F42DC61FB22DC70A031DB22DC80A031DFE
:100B5000B22DC90A031DB22DC90CC80CC70CF70A67
:100B60000319F42D451B362DC51B782DD62D80304D
:100B7000C906C91FBF2DF92D4008C400CC2D3C0863
:100B8000C400C908031DCC2DC808031DCC2DC708FF
:100B9000031DCC2DF701ED2DC91BD62D0310C60D5D
:100BA000C70DC80DC90DF70BCC2DF42DC41FDA2DC0
:100BB000C917ED2DC913ED2D3F08F7004008C900F6
:100BC0004108C8004208C700ED2D3B08F7003C086B
:100BD000C9003D08C8003E08C7004908F800480899
:100BE000F9004708FA002C2EF701F801F901FA0183
:100BF0002C2EC601C709C809C909C609C60A031DA2
:100C0000072EC70A031D072EC80A0319C90A45186B
:100C1000152DC518572D45198D2DBC2D0008C7075A
:100C2000031C182EC80A031D182EC90A03194314E1
:100C300084030008C807031C202EC90A03194314A3
:100C400084030008801F803AC90703184314451A1B
:100C50001C2DC51A5E2D942D8312080083163B08A7
:100C60000319F42EC7003F080319F42EC702031C12
:100C70003E2E7F30C7070318F42E442E8130C70262
:100C8000031CF42E0319F42E4708F700F801F901AC
:100C9000FA01C6013C08C500C5173D08C4003E085E
:100CA000C3001930C7004208C3020318672E013081
:100CB000C4020318672EC5020318672EC602031864
:100CC000672EC60AC50AC40A4208C307992E4108FE
:100CD000C4020318822E0130C5020318822EC602F8
:100CE0000318822EC60AC50A4108C4074208C30772
:100CF000031C992EC40A031D992EC50A031D992EA3
:100D0000C60A992E40088038C5020318982E013073
:100D1000C6020318982EC60A40088038C507410845
:100D2000C407031C762EC50A031D762EC60A762E2E
:100D30007A14C70B9C2EA72E0310C30DC40DC50D2E
:100D4000C60D0310FA0DF90DF80DC80D532E481CF1
:100D5000AF2E0310F80CF90CFA0CC80CB22EF703E6
:100D60000319F42EC81BDB2E0310C30DC40DC50DD3
:100D7000C60D4208C3020318C72E0130C40203186F
:100D8000C72EC5020318C72EC602031CEA2E41084F
:100D9000C4020318D22E0130C5020318D22EC60297
:100DA000031CEA2E40088038C5020318DB2E0130F0
:100DB000C602031CEA2EFA0A031DEA2EF90A031DD5
:100DC000EA2EF80A031DEA2EF70A0319F42EF80C8E
:100DD000F90CFA0C3C08C7004008C706C71FF22EE2
:100DE000F817F82EF813F82EF701F801F901FA01B7
:100DF0008312080083164008C7004408C706C71FAF
:100E0000062F03110310C01B0314392F4008C7001D
:100E10004308C8003F08C8020319142FC71F392F01
:100E20000308013A8300392F4408C8004008C8026B
:100E30000319202FC71F392F0308013A8300392FC8
:100E40004508C8004108C80203192C2FC71F392FB5
:100E50000308013A8300392F4608C8004208C80237
:100E60000319382FC71F392F0308013A8300392F80
:100E700003108312080004088316B600B51F4D2F17
:100E8000B603B616B209B309B409B509B20A031913
:100E9000B30A0319B40A0319B50A3B30BD009A30EE
:100EA000BC00CA30BB00BA010A30B8008314B230AB
:100EB000840083133508C2003408C1003308C00021
:100EC0003208BF003D08C6003C08C5003B08C4000E
:100ED0003A08C300831209237808F708031D872FF7
:100EE00083163808013A031D772F8312872F36089F
:100EF00003198A2F0F3938020319802F0318AC2FDA
:100F0000B61BAC2F361B8A2F2030A62F8312203021
:100F10008316B605B61E972FB6127708B6002D3089
:100F2000BF008312B02183163608F700B6013030B7
:100F3000B61EA62FB6127708B6002D30BF0083125A
:100F4000B02183163608F700B6013030F70777086E
:100F5000BF008312B021831683103D08C2003C08F5
:100F6000C1003B08C0003A08BF00C601C501C4016A
:100F70000A30C300831209237A088316BD0079085A
:100F8000BC007808BB007708BA00B80B562F831254
:100F90008A110A16512D80080319E72F8316B30111
:100FA0000408B2003310831B33140008BF008312FF
:100FB000B021831632088400831333188317840A00
:100FC000031DE52F8312850A83168312CB2F080099
:10100000831632082B3A831203191028063A031963
:101010004828073A03194B28053A0319A328E8285A
:1010200083149E308316BE00C930BD007F30BC00E3
:10103000FE30BB003608C2003508C1003408C000CD
:101040003308BF008A118312E8248A157A088316B0
:10105000BE007908BD007808BC007708BB003E08D8
:10106000C2003D08C1003C08C0003B08BF003A0870
:10107000C6003908C5003808C4003708C3008A1103
:101080008312FA268A15003003180130F800EA2886
:101090000030F800EA2883163608C2003508C1007F
:1010A0003408C0003308BF00C601C501C401C30134
:1010B0008A118312FA268A150319712883163A08B1
:1010C000C2003908C1003808C0003708BF00C60197
:1010D000C501C401C3018A118312FA268A15031DB2
:1010E00074280030F800EA289E308316BE00C9300C
:1010F000BD007F30BC00FE30BB003A08C20039089A
:10110000C1003808C0003708BF008A1183122E269C
:101110008A157A088316C2007908C1007808C000D1
:101120007708BF003608C6003508C5003408C4007B
:101130003308C3008A118312FA268A150030031877
:101140000130F800EA2883163A08C2003908C100C5
:101150003808C0003708BF00C601C501C401C3017B
:101160008A118312FA268A15031DB9280130F80066
:10117000EA289E308316C200C930C1007F30C0000B
:10118000FE30BF003A08C6003908C5003808C40060
:101190003708C3008A11831271248A157A088316CE
:1011A000C2007908C1007808C0007708BF0036087F
:1011B000C6003508C5003408C4003308C3008A11CE
:1011C0008312FA268A15003003180130F800EA2845
:1011D0000030F8008A110A16492C04088316B7005B
:1011E0003608B900031911293508C2003408C100B6
:1011F0003308C0003208BF00C601C5012030C4005A
:101200008230C3008A11831271248A157A088316EA
:10121000B5007908B4007808B3007708B200B90BBC
:10122000F4283508C2003408C1003308C000320871
:10123000BF003F08B63CBF00FA014008C300C0171A
:101240000310C00CC10CC20CFA0CF90CF80CF70C12
:10125000BF0B2029C31F3729F709F809F909FA0933
:10126000F70A0319F80A0319F90A0319FA0A7A089E
:10127000B5007908B4007808B3007708B200B51F4C
:101280004E29B703B716B209B309B409B509B20AB2
:101290000319B30A0319B40A0319B50A3B30BE0097
:1012A0009A30BD00CA30BC00BB010A30B900360814
:1012B0000319B70A8314B230840083133508C200BF
:1012C0003408C1003308C0003208BF003E08C60021
:1012D0003D08C5003C08C4003B08C3008A118312C6
:1012E00009238A157808F708031D8D298316360A05
:1012F0003902031D7D2983128D293708031990298E
:101300000F393902031986290318D029B71BD029B0
:10131000371B90292030C829831220308316B70547
:10132000B71EA229B7123608031DB7037708B70006
:101330002D30BF008A118312B0218A158316370819
:10134000F700B70136083902031DB4297708B70042
:101350002E30BF008A118312B0218A1583163708F8
:10136000F7002030B70500303030B71EC829B7125B
:101370003608031DB7037708B7002D30BF008A1168
:101380008312B0218A1583163708F700B701303071
:10139000F7077708BF008A118312B0218A158316D8
:1013A00083103E08C2003D08C1003C08C0003B0855
:1013B000BF00C601C501C4010A30C3008A118312EF
:1013C00009238A157A088316BE007908BD007808BB
:1013D000BC007708BB00B90B5A2983128A110A1680
:0213E000642D7A
:1020000003081F398300DA01A110DB01DC01DD01C7
:10201000FF30DE00DF00E301E201E101E001E70162
:10202000E601E501E401EB01EA01E901E801EF0164
:10203000EE01ED01EC01F301F201F101F001FE010D
:10204000FD01FC01FB0121118316A500A701A601DA
:102050001F149F141F159F1107309C0083138312B8
:10206000A0012110A201A301A401A501A601A701BD
:10207000A801A901AA01AB01AC01AD01AE01AF01FC
:10208000B001B101B201B301B401B501B601B701AC
:10209000B801B901BA01BB01BC01BD01BE01BF015C
:1020A000C001C101C201C301C401C501C601C7010C
:1020B000C801C901CA01CB01CC01CD01CE01CF01BC
:1020C000D001D101D201D301D401D501D601D7016C
:1020D000D801D90183161F149F141F159F11831255
:1020E0001F1083160912831294128316A512250855
:1020F0008700251625088700A511250887000130CF
:102100008312940000308316940083129001F8002B
:10211000920000308316920007309C00050885006D
:102120000330F700F70B92281C0883120D13831657
:102130009D0181130A12831212290A160A126629B6
:102140000A160A1269210A16183003178D0000308A
:102150008F000A120313EA210A160A125E2A0A16CF
:102160007808F400F4080319F42E01308316C00037
:102170000A12831233200A167408233C031DCF2D44
:1021800021115E08FF3C031DC8285F08FF3C031DAA
:10219000211521194E2AE301E201E101E001F501D7
:1021A0005C0875020318182963088316B5008312AA
:1021B00062088316B400831261088316B300831289
:1021C00060088316B200B901B801B7010A30B60041
:1021D0000A128312DD220A167A088316B5007908DE
:1021E000B4007808B3007708B20024307507840083
:1021F00083133030000232078312E0008316330865
:102200008312E100003003180130E107831634081F
:102210008312E200003003180130E207831635080C
:102220008312E300003003180130E307F50AD028D9
:10223000E701E601E501E401F5015D087502031817
:10224000652967088316B500831266088316B400F3
:10225000831265088316B300831264088316B200E4
:10226000B901B801B7010A30B6000A128312DD22A3
:102270000A167A088316B5007908B4007808B30006
:102280007708B2002C3075078400831330300002C9
:1022900032078312E400831633088312E50000300E
:1022A00003180130E507831634088312E600003076
:1022B00003180130E607831635088312E700003063
:1022C00003180130E707F50A1D295A082F3C031DA2
:1022D0007829E408031D7829E508031D7829E60814
:1022E000031D7829E708031D78290130DB004D2AFA
:1022F0005A088316B200831263088316B60083124D
:1023000062088316B500831261088316B400831235
:1023100060088316B300831267088316BA0083121D
:1023200066088316B900831265088316B800831205
:1023300064088316B7000A1283125A2B0A16F8088B
:102340000319A5290230DB004D2A5A082B3A03193C
:10235000B329063A0319C929073A0319DF29053AAF
:1023600003190B2A382A64086007E8006108E900AD
:1023700065080318650FE9076208EA006608031894
:10238000660FEA076308EB0067080318670FEB079F
:102390004D2A64086002E8006108E9006508031C32
:1023A000650FE9026208EA006608031C660FEA028C
:1023B0006308EB006708031C670FEB024D2A6308F4
:1023C0008316B500831262088316B4008312610875
:1023D0008316B300831260088316B2008312670865
:1023E0008316B900831266088316B8008312650845
:1023F0008316B700831264088316B6000A1283128C
:10240000DD220A167A08EB007908EA007808E9006C
:102410007708E8004D2A831063088316C2008312F0
:1024200062088316C100831261088316C0008312FC
:1024300060088316BF00831267088316C6008312E4
:1024400066088316C500831265088316C4008312CC
:1024500064088316C3000A12831209230A167A0835
:10246000EB007908EA007808E9007708E8004D2ACF
:1024700064086007E8006108E90065080318650F53
:10248000E9076208EA0066080318660FEA076308AE
:10249000EB0067080318670FEB07152D8316AB01D8
:1024A000AA01A901A80183125E08FF3C031D5A2A54
:1024B0005C085B2A5E088316A400F50124087502F7
:1024C0000318982A2B08B5002A08B4002908B3007D
:1024D0002808B200B901B801B7010A30B6000A12E3
:1024E0008312DD220A167A088316B5007908B40033
:1024F0007808B3007708B20024307507840083138E
:10250000303000023207A8003308A9000030031859
:102510000130A9073408AA00003003180130AA07C7
:102520003508AB00003003180130AB07F50A5E2A0E
:102530002B08B5002A08B4002908B3002808B20007
:102540000A12831235240A167A08EF007908EE0081
:102550007808ED007708EC005E08FF3C0319342B87
:10256000CD308316A300CC30A2004C30A1007B30CC
:10257000A00083125E08F5005C0875020318342B76
:102580002430750784008313303000028316B401B1
:10259000B3000A12831252240A167A088316C20064
:1025A0007908C1007808C0007708BF002308C6007A
:1025B0002208C5002108C4002008C3000A128312A3
:1025C00071240A168316B3010408B2003310831B6A
:1025D0003314831083126F088316BE0083126E08B3
:1025E0008316BD0083126D088316BC0083126C082D
:1025F0008316BB007A08C2007908C1007808C000C1
:102600007708BF000A128312E8240A1683163208DC
:1026100084008313331883177A088312EF00790834
:10262000EE007808ED007708EC0083162308BE0062
:102630002208BD002108BC002008BB00C201C10166
:102640002030C0008230BF000A1283122E260A16E4
:102650007A088316A3007908A2007808A1007708F9
:10266000A000F50A8312BC2A8316AF01AE01AD01AA
:10267000AC0183125F08FF3C031D402B5D08412B1A
:102680005F088316A400F5012408750203187E2B49
:102690002F08B5002E08B4002D08B3002C08B20096
:1026A000B901B801B7010A30B6000A128312DD225F
:1026B0000A167A088316B5007908B4007808B300C2
:1026C0007708B2002C307507840083133030000285
:1026D0003207AC003308AD00003003180130AD07FD
:1026E0003408AE00003003180130AE073508AF00E3
:1026F000003003180130AF07F50A442B2F08B5004E
:102700002E08B4002D08B3002C08B2000A12831260
:1027100035240A167A08F3007908F2007808F100E7
:102720007708F0005F08FF3C0319102CCD308316AA
:10273000A300CC30A2004C30A1007B30A00083125B
:102740005F08F5005D0875020318102C2C30750722
:1027500084008313303000028316B401B3000A12E0
:10276000831252240A167A088316C2007908C1001F
:102770007808C0007708BF002308C6002208C500FB
:102780002108C4002008C3000A12831271240A160B
:102790008316B3010408B2003310831B3314831073
:1027A0007308BE007208BD007108BC007008BB0051
:1027B0007A08C2007908C1007808C0007708BF0015
:1027C0000A128312E8240A1683163208840083133F
:1027D000331883177A08F3007908F2007808F100BB
:1027E0007708F0002308BE002208BD002108BC00C5
:1027F0002008BB00C201C1012030C0008230BF00F0
:102800000A1283122E260A167A088316A300790864
:10281000A2007808A1007708A000F50A8312A22B75
:102820005A082F3C031D2A2C73088316C200720815
:10283000C1007108C0007008BF00C601C501C40115
:10284000C3010A128312FA260A16031D2A2C01302C
:10285000DB00152D5A088316B20083126F08831609
:10286000B60083126E088316B50083126D088316B6
:10287000B40083126C088316B3007308BA007208A0
:10288000B9007108B8007008B7000A128A158312DF
:1028900000280A168A11F8080319512C0230DB00AF
:1028A000152D5A082B3A03195F2C063A0319842C6C
:1028B000073A0319A92C053A0319CD2CF12C8310E2
:1028C0006F088316BE0083126E088316BD00831244
:1028D0006D088316BC0083126C088316BB00730856
:1028E000C2007208C1007108C0007008BF000A125F
:1028F0008312E8240A167A08FE007908FD00780899
:10290000FC007708FB00152D83146F088316BE00AA
:1029100083126E088316BD0083126D088316BC00F7
:1029200083126C088316BB007308C2007208C100D2
:102930007108C0007008BF000A128312E8240A164A
:102940007A08FE007908FD007808FC007708FB0093
:10295000152D6F088316C20083126E088316C100FE
:1029600083126D088316C00083126C088316BF00A3
:102970007308C6007208C5007108C4007008C3005F
:102980000A12831271240A167A08FE007908FD00E3
:102990007808FC007708FB00152D6F088316BE0031
:1029A00083126E088316BD0083126D088316BC0067
:1029B00083126C088316BB007308C2007208C10042
:1029C0007108C0007008BF000A1283122E260A1672
:1029D0007A08FE007908FD007808FC007708FB0003
:1029E000152D83106F088316BE0083126E088316A0
:1029F000BD0083126D088316BC0083126C08831619
:102A0000BB007308C2007208C1007108C0007008E2
:102A1000BF000A128312E8240A167A08FE00790819
:102A2000FD007808FC007708FB00193003178D00C3
:102A300000308F000A120313EA210A16DB08031D77
:102A4000672D01308316C000C1000A1283129C2139
:102A50000A161A3003178D0000308F000A12031374
:102A6000EA210A1601308316C0000230C1000A12A2
:102A700083129C210A162119532D413084006B08C2
:102A80008316B50083126A088316B400831269089E
:102A90008316B300831268088316B2000A128312E9
:102AA0003B2F0A16662D893084007E088316B500F8
:102AB0007D08B4007C08B3007B08B2000330B60088
:102AC0000A128A158312ED280A168A11B42D5B0B9F
:102AD0008D2D01308316C000C1000A1283129C2183
:102AE0000A161D3003178D0000308F000A120313E1
:102AF000EA210A1601308316C0000230C1000A1212
:102B000083129C210A16203003178D0000308F009D
:102B10000A120313EA210A16B42D5B08023C031DB6
:102B2000B42D01308316C000C1000A1283129C210B
:102B30000A16293003178D0000308F000A12031384
:102B4000EA210A1601308316C0000230C1000A12C1
:102B500083129C210A162C3003178D0000308F0041
:102B60000A120313EA210A160C308316B200FA3057
:102B7000C0000A12831233200A168316B20BB72D37
:102B80000A12831269210A16313003178D000030B2
:102B90008F000A120313EA210A16AD28442E740886
:102BA0002B3C0319DF2D74082D3C0319DF2D74080D
:102BB0002A3C0319DF2D74082F3C031DE52DA118B5
:102BC000E42D7408DA00A114442E74082E3C031D71
:102BD000F92DA118F22D5E08FF3C031DF12D5C08B4
:102BE000DE00F82D5F08FF3C031DF82D5D08DF00B7
:102BF000442E74082F3C0318442E7408393C031CDF
:102C0000442EA118252E5E08FF3C031D092E5C08EA
:102C10000A2E5E088316B00083125E08FF3C031D77
:102C2000172E831630080E3C031C232E83125C08DB
:102C3000063C031C222E24305C0784008313740896
:102C40008000DC0A8316452E83125F08FF3C031DBB
:102C50002B2E5D082C2E5F088316B10083125F08AF
:102C6000FF3C031D392E831631080E3C031C452EF4
:102C700083125D08063C031C442E2C305D07840043
:102C8000831374088000DD0A8316F601F5017508C8
:102C900083125C02031C792E5E087502031D5B2EF5
:102CA0005E08FF3C03195B2E3430760784008313E3
:102CB0002E308000F60A5C0875020318752E343039
:102CC00076078316B200B3010318B30A24307507E0
:102CD000840083130008B40032088400831333187F
:102CE000831734088000F60A8312F50A8316472EEC
:102CF000831234307607840083138001F601F501D6
:102D000075085D02031CAF2E5F087502031D932E2C
:102D10005F08FF3C0319932E473076078400831326
:102D20002E308000F60A5D0875020318AD2E47307C
:102D300076078316B200B3010318B30A2C30750767
:102D4000840083130008B40032088400831333180E
:102D5000831734088000F60A8312F50A802E473064
:102D60007607840083138001323003178D00003012
:102D70008F000A120313EA210A1601308316C000DD
:102D8000C1000A1283129C210A1634308400831376
:102D90000A12CB270A16DA080319DE2E1030831622
:102DA000C0000130C1000A1283129C210A165A0881
:102DB0008316BF000A128312B0210A16013083164F
:102DC000C0000230C1000A1283129C210A1647304B
:102DD000840083130A12CB270A1664308316C000BE
:0C2DE0000A12831233200A16AD2863008B
:02400E000A2F77
:00000001FF
;PIC16F877A
;CRC=907E  CREATED="05-Aug-26 16:14"
