:1000000003308A00D52B00000C2B61366F393A1073
:1000100025192E1966000A2AC529D422A0274B00CB
:100020003430840083130008031924280130F800B9
:10003000F701F70B1928F80B18284A30F700F70BCF
:100040001F282228800B162808003B182928081290
:100050002A280816831608128312BB183128881123
:10006000322888158316881183123B193928081104
:100070003A280815831608118312BB1941288810E5
:10008000422888148316881000008312881683166D
:1000900088124A2883128812831688128312080055
:1000A000BC018316081600308312081A0130BC0404
:1000B000831688150030831288190130F700031069
:1000C000F70D7708BC048316081500308312081951
:1000D0000130F700F70DF70DFC30F7057708BC0489
:1000E000831688140030831288180130F700F70D4A
:1000F000F70DF70DF830F7057708BC043C08F80059
:100100000800831688128813081383128813831635
:100110008813081688150815881483120817831683
:1001200008130000831288168316881200008312B9
:1001300050207808BB0088128316881200008312B2
:100140008816831688120000831250207808BA009F
:1001500088128316881208128811081188108312D9
:100160003B0EF700F030F70577083A04F8007808FE
:10017000BA00BA1FBD2883168928B808031DC228F3
:100180008813C32888178316881300008312081366
:1001900083160813000083128812831688128312B4
:1001A000390EBA000F30BA053A08BB0025203908CD
:1001B0000F39BA00BB00252008002830A7000C30FA
:1001C000A8000130A9000630AA0088128316881200
:1001D0008312881383168813831208138316081357
:1001E00008128811081188108812881308130F301C
:1001F0008312B40010200130A6002608033C031C23
:1002000009290330BB0025200530B4001020A60AC0
:10021000FD280230BB0025200530B4001020A601C7
:100220002608033C031C202927302607840083135B
:100230000008AB00B8012B08B9008120A60A1029DC
:100240008A110A12F52B8E30F7002708F8002608CD
:10025000F900FA01F808031D37297908F800F901B7
:100260000830F702F808031D3729F7013F2903106A
:10027000F81B3E29F90DF80DF7033729F8138A11F9
:100280000A12012C350B452948294030B60049296E
:10029000B60101303402B60736088038B700B8011D
:1002A0003708B900812008003308073A031962298A
:1002B0000B3A03196729063A03196F29023A031901
:1002C00075297A290130B400B50042217F29B8018F
:1002D0000130B90081200230B40010207F290130A4
:1002E000B4000230B50042217F29B8011030B900B6
:1002F00081207F290130B8003308B900812008002F
:100300000B08A7008B13831603178C170C1400001F
:10031000000083120313A71B8B170318B7290317B9
:100320000C087F390313A70003170D080313A80057
:1003300003170F080313A9002708B3005421280846
:1003400003178D000313290803178F0003130B08ED
:10035000AA008B13831603178C170C1400000000DF
:1003600083120313AA1B8B17A60BB729D6290317D1
:100370000C0D0E0D7F390313A70003170D0803138F
:10038000A80003170F080313A9002708B30054217E
:10039000280803178D000313290803178F008D0AFF
:1003A00003198F0A03100313A60B80298A110A125E
:1003B000132C8318DE293B3084008313F701F801E6
:1003C000F901FA01BB01BC01BD01BE013A083904C3
:1003D0003804370403191C2A2030BF000310B30D62
:1003E000B40DB50DB60DBB0DBC0DBD0DBE0D3A085F
:1003F0003E02031D052A39083D02031D052A38085F
:100400003C02031D052A37083B02031C162A370845
:10041000BB023808031C380FBC023908031C390F13
:10042000BD023A08031C3A0FBE020314F70DF80D83
:10043000F90DFA0DBF0BEE293B088000840A3C0839
:100440008000840A3D088000840A3E08800008007D
:100450000408AB002A08AD000319BA2A2908B6001F
:100460002808B5002708B4002608B300BA01B9016E
:100470002030B8008230B70033080319AC2ABB0023
:1004800037080319AC2ABB0703184D2A7F30BB027B
:10049000031CAC2A0319AC2A512A8130BB0703186C
:1004A000AC2A3B08F700F801F901FA013408BF0053
:1004B000BF173508BE003608BD001830BB00BC01B0
:1004C0003D1C7A2A3A08FA07031C6C2AF90A031D14
:1004D0006C2AF80A0319BC173908F907031C732A98
:1004E000F80A0319BC173808B500B5173508F8071E
:1004F0000318BC17BC0DF80CF90CFA0CBF0CBE0CA1
:10050000BD0C0310BB0B5F2A0130F7070318AC2AA0
:10051000F81B912ABF0DFA0DF90DF80DF703031919
:10052000AC2ABF1FA22AFA0A031DA22AF90A031D38
:10053000A22AF80A031DA22AF80CF90CFA0CF70AF1
:100540000319AC2A3408BC003808BC06BC1FAA2A10
:10055000F817B02AF813B02AF701F801F901FA01E7
:100560007A08A9007908A8007808A7007708A600EB
:10057000AD0B2E2A2908B6002808B5002708B400BC
:100580002608B3003308B63CB300FA013408B700BC
:10059000B4170310B40CB50CB60CFA0CF90CF80C2B
:1005A000F70CB30BC92AB71FE02AF709F809F909B4
:1005B000FA09F70A0319F80A0319F90A0319FA0ADA
:1005C0007A08A9007908A8007808A7007708A6008B
:1005D000A91FF72AAB03AB16A609A709A809A90901
:1005E000A60A0319A70A0319A80A0319A90A3B3086
:1005F000B2009A30B100CA30B000AF010A30AD008D
:100600002A080319AB0A83142630840083132908AF
:10061000B6002808B5002708B4002608B300320841
:10062000BA003108B9003008B8002F08B700D92146
:100630007808F708031D2F2B2A0A2D0203192F2BE8
:100640002B080319312B0F392D020319292B0318FD
:10065000612BAB1B612B2B1B312B20305D2B2030F2
:10066000AB05AB1E3F2BAB122A08031DAB0377086B
:10067000AB002D30B30054212B08F700AB012A0842
:100680002D02031D4D2B7708AB002E30B3005421F3
:100690002B08F7002030AB0500303030AB1E5D2B4F
:1006A000AB122A08031DAB037708AB002D30B30053
:1006B00054212B08F700AB013030F7077708B3005F
:1006C000542183103208B6003108B5003008B40058
:1006D0002F08B300BA01B901B8010A30B700D92117
:1006E0007A08B2007908B1007808B0007708AF0046
:1006F000AD0B032B8A110A12202C0B08A6008B13BA
:10070000831603178C170C140000000083120313C8
:10071000A61B8B1703170C087F390319D12B031362
:10072000A60003170D080313A70003170F080313F0
:10073000A8002608B3005421270803178D000313CF
:10074000280803178F0003130B08A9008B138316C7
:1007500003178C170C140000000083120313A91B4D
:100760008B1703170C0D0E0D7F390319D12B0313B3
:10077000A60003170D080313A70003170F080313A0
:10078000A8002608B3005421270803178D0003137F
:10079000280803178F008D0A03198F0A03137D2B76
:1007A000031703138A110A12272C03081F39830029
:1007B000A501A40183161F149F141F159F11073054
:1007C0009C0083131F109F141F159F151F13831266
:1007D0001F179F1783169F1783121F140030F800EE
:1007E0001F08C73978049F00DD281F151F19F62B35
:1007F0001E08FA0083161E088312A6001E08A70012
:1008000023297A08A3007908A2007808A1007708B4
:10081000A000043003178D0000308F000310083053
:100820000313A6008029893084002308A900220828
:10083000A8002108A7002008A6000230AA00282A44
:100840000B3003178D0000308F0003137D2B043015
:10085000A600FA30B4001020A60B292CF52B63005B
:02400E000A2F77
:00000001FF
;PIC16F877A
;CRC=6838  CREATED="14-Jul-26 13:32"
