:1000000002308A00162A000026308400831300087C
:10001000031918280130F800F701F70B0D28F80B29
:100020000C284A30F700F70B13281628800B0A28F3
:1000300008002A0EF039F7000F3008057704880011
:10004000000008142328081008000808F700080E0C
:100050000F39F80008002830A2000C30A30001304E
:10006000A4000630A5000810881008110F30831670
:10007000080588000810881008110F308312A600A8
:1000800004200130A1002108033C031C4F28033049
:10009000AA0019200530A6000420A10A4328023036
:1000A000AA0019200530A6000420A1012108033C64
:1000B000031CA42822302107840083130008A60013
:1000C000A7012608A80083160810881008118312BB
:1000D00088100F3083160805F03888008312081541
:1000E00000000814000025207808AA00081000006D
:1000F0000814000025207808A90008100F30831686
:100100000805880083122A0EF700F030F7057708FB
:100110002904F8007808A900A91B6928271C881061
:10012000271888140000081100000810280EA900E4
:100130000F30A9052908AA00192028080F39A9009D
:10014000AA001920A10A56288A110A12252A20106D
:1001500020088316870083120714A0102008831636
:1001600087008312871420112008831687008312CA
:100170000715A01120088316870083128715201207
:1001800020088316870083120716A0122008831602
:100190008700831287162013200883168700831296
:1001A00007170800A0122008831687008312871201
:1001B000201220088316870083120712A01120083E
:1001C0008316870083128711201120088316870069
:1001D00083120711A010200883168700831287104E
:1001E0002010200883168700831207108A110A1234
:1001F0002B2AA01020088316870083128710201155
:10020000200883168700831207118A110A12342AE4
:10021000A01120088316870083128711201220085E
:100220008316870083120712201320088316870085
:1002300083120713A01020088316870083128710EB
:100240002010200883168700831207108A110A12D3
:100250003D2A201020088316870083120710A01063
:100260002008831687008312871020132008831626
:10027000870083120713201120088316870083123A
:100280000711A011200883168700831287118A1195
:100290000A12462A201120088316870083120711AC
:1002A000201320088316870083120713A01220084A
:1002B0008316870083128712A010200883168700F8
:1002C000831287108A110A124F2A201020088316E1
:1002D000870083120710A01220088316870083125C
:1002E000871220132008831687008312071320111A
:1002F00020088316870083120711A0112008831697
:100300008700831287118A110A12582A20102008A8
:100310008316870083120710A01220088316870017
:100320008312871220132008831687008312071375
:10033000201120088316870083120711A0112008BE
:1003400083168700831287112012200883168700E6
:10035000831207128A110A12612A201020088316BC
:10036000870083120710A0102008831687008312CD
:1003700087102011200883168700831207118A1125
:100380000A126A2A20102008831687008312071099
:10039000A0122008831687008312871220132008DA
:1003A0008316870083120713201120088316870005
:1003B00083120711A011200883168700831287116A
:1003C000201220088316870083120712A01020082D
:1003D00083168700831287108A110A12732A20104D
:1003E00020088316870083120710A01220088316A6
:1003F0008700831287122013200883168700831238
:100400000713201120088316870083120711A011FB
:1004100020088316870083128711A01020088316F6
:100420008700831287108A110A127C2A03081F3959
:100430008300FF30A00083161F149F141F159F1107
:1004400007309C00831383122B2883160810831215
:100450000810A720D2280230A100FA30A6000420FC
:10046000A10B2D2AA720F9280230A100FA30A600FE
:100470000420A10B362AA72008290230A100FA3057
:10048000A6000420A10B3F2AA72029290230A100A1
:10049000FA30A6000420A10B482AA7204A290230DE
:1004A000A100FA30A6000420A10B512AA72065293B
:1004B0000230A100FA30A6000420A10B5A2AA7207E
:1004C00086290230A100FA30A6000420A10B632A7D
:1004D000A720AD290230A100FA30A6000420A10B0C
:1004E0006C2AA720C2290230A100FA30A6000420FD
:1004F000A10B752AA720EF290230A100FA30A6002F
:0A0500000420A10B7E2A292A6300C3
:02400E000A2F77
:00000001FF
;PIC16F877A
;CRC=90C1  CREATED="31-Mar-26 16:47"
