:1000000002308A00A62A0000A30803193228201013
:1000100020088316870083120714A0102008831677
:10002000870083128714201120088316870083120B
:100030000715A01120088316870083128715201248
:1000400020088316870083120716A0122008831643
:1000500087008312871620132008831687008312D7
:1000600007174E2883160810831208148316881069
:1000700083128814831608118312081583168811B9
:1000800083128815831608128312081683168812A5
:100090008312881683160813831208170800230892
:1000A000003A03196F28013A03199428033A0319F7
:1000B000A128013A0319C028073A0319DF28013A99
:1000C0000319F828033A03191729013A03193C299F
:1000D0000F3A03194F29013A03197A299F29201051
:1000E00020088316870083120710A01020088316AB
:1000F000870083128710201120088316870083123F
:100100000711A0112008831687008312871120127F
:1001100020088316870083120712A0122008831676
:100120008700831287129F29A0102008831687005A
:10013000831287102011200883168700831207116D
:100140009F29201020088316870083120710A01013
:1001500020088316870083128710A01120088316B9
:1001600087008312871120122008831687008312CC
:1001700007122013200883168700831207139F2974
:10018000201020088316870083120710A010200873
:10019000831687008312871020112008831687009A
:1001A00083120711A011200883168700831287117C
:1001B0002013200883168700831207139F29A0109D
:1001C00020088316870083128710201120088316C9
:1001D000870083120711A01220088316870083125C
:1001E00087122013200883168700831207139F2984
:1001F0002010200883168700831207102011200882
:100200008316870083120711A01120088316870028
:1002100083128711A0122008831687008312871289
:100220002013200883168700831207139F292010AC
:1002300020088316870083120710201120088316D8
:10024000870083120711A0112008831687008312EC
:100250008711201220088316870083120712A0122C
:100260002008831687008312871220132008831624
:100270008700831207139F29201020088316870008
:1002800083120710A010200883168700831287109E
:100290002011200883168700831207119F29201040
:1002A00020088316870083120710A01020088316E9
:1002B000870083128710201120088316870083127D
:1002C0000711A011200883168700831287112012BE
:1002D00020088316870083120712A01220088316B5
:1002E0008700831287122013200883168700831249
:1002F00007139F29201020088316870083120710F8
:10030000A010200883168700831287102011200870
:100310008316870083120711A01120088316870017
:1003200083128711A0122008831687008312871278
:100330002013200883168700831207139F2924089F
:100340000319BE29013A0319D729033A0319E029F1
:10035000013A0319F529073A03190A2A013A031940
:100360001B2A033A0319302A013A0319492A0F3A82
:100370000319562A013A0319732A8C2A8316081086
:1003800083120810831688108312881083160811B0
:10039000831208118316881183128811831608129C
:1003A0008312081283168812831288128C2A8316ED
:1003B00088108312881083160811831208118C2A62
:1003C0008316081083120810831688108312881071
:1003D000831688118312881183160812831208125B
:1003E00083160813831208138C2A831608108312AD
:1003F0000810831688108312881083160811831240
:10040000081183168811831288118316081383122A
:1004100008138C2A831688108312881083160811FB
:100420008312081183168812831288128316081308
:10043000831208138C2A831608108312081083165F
:1004400008118312081183168811831288118316EC
:1004500088128312881283160813831208138C2AB9
:1004600083160810831208108316081183120811CE
:1004700083168811831288118316081283120812BA
:1004800083168812831288128316081383120813A6
:100490008C2A831608108312081083168810831282
:1004A000881083160811831208118C2A83160810ED
:1004B000831208108316881083128810831608117F
:1004C000831208118316881183128811831608126B
:1004D0008312081283168812831288128316081357
:1004E000831208138C2A83160810831208108316AF
:1004F000881083128810831608118312081183163E
:100500008811831288118316881283128812831629
:100510000813831208138C2A8A110A12CE2A243057
:100520008400831300080319A32A0130F800F7019F
:10053000F70B982AF80B972A4A30F700F70B9E2AF8
:10054000A12A800B952A8A110A12D32A03081F397F
:100550008300FF30A00083161F149F141F159F11E6
:1005600007309C008313061283120612831686122C
:1005700083128612A1012108093C031CD92AA20179
:100580002208093C031CD72A0130A3000420A30140
:1005900004202208A3002108A4004F280230A30051
:1005A000FA30A4008F2AA30BD02AA20AC02AA10ADB
:0605B000BB2ABA2A630019
:02400E000A2F77
:00000001FF
;PIC16F877A
;CRC=EE04  CREATED="07-Apr-26 15:33"
