:1000000002308A00252A000038308400831300085B
:10001000031918280130F800F701F70B0D28F80B29
:100020000C284A30F700F70B13281628800B0A28F3
:100030000800B701B6013708013C031C9928031DCD
:1000400025283608F33C031C9928B213320883167E
:10005000870083128713831686018312280886007F
:100060000130B8000420B2133208831687008312CF
:1000700087173213320883168700831207138316FB
:1000800086018312280886000130B800042032134C
:1000900032088316870083120717B21232088316BC
:1000A0008700831287128316860183122808860030
:1000B0000130B8000420B212320883168700831280
:1000C00087163212320883168700831207128316AE
:1000D00086018312280886000130B80004203212FD
:1000E000320883168700831207168316881183123D
:1000F0008811831686018312280886000130B80013
:100100000420831688118312881583160811831220
:100110000811831686018312280886000130B80072
:1001200004208316081183120815B60A0319B70AAA
:100130001B288A110A12552AB21332088316870027
:10014000831287173213320883168700831207172A
:10015000B2123208831687008312871632123208D1
:100160008316870083120716831688118312881559
:100170008316081183120815B213320883168700FC
:100180008312871320303007840083130008B600E1
:1001900083168601831236088600A630F700F70B17
:1001A000CF280000B2133208831687008312871706
:1001B00032133208831687008312071320302F076B
:1001C000840083130008B600831686018312360864
:1001D0008600A630F700F70BEB2800003213320838
:1001E0008316870083120717B2123208831687001E
:1001F0008312871220302E07840083130008B60074
:1002000083168601831236088600A630F700F70BA6
:1002100007290000B212320883168700831287165E
:1002200032123208831687008312071220302D07FE
:10023000840083130008B6008316860183123608F3
:100240008600A630F700F70B23290000321232088F
:10025000831687008312071683168811831288116C
:1002600020302C07840083130008B6008316860113
:10027000831236088600A630F700F70B3D290000F0
:1002800083168811831288158316081183120811AA
:1002900020302B07840083130008B60083168601E4
:1002A000831236088600A630F700F70B55290000A8
:1002B00083160811831208158A110A126D2A12304A
:1002C000B702031C7229373084008313FC30800589
:1002D0000310800C800C000803197229702900009B
:1002E000800B6F290800B21332088316870083122F
:1002F0008717321332088316870083120717B2124A
:10030000320883168700831287163212320883164A
:1003100087008312071683168811831288158316A7
:100320000811831208158316081183120811203052
:100330003107840083130008B600831686018312F8
:10034000360886000130B80004200230B600933031
:10035000B7005F21B60BA729831608118312081571
:10036000B21332088316870083128713831686011F
:1003700083122A0886000130B80004200230B6003B
:100380009330B7005F21B60BC029B2133208831631
:100390008700831287178A110A126D2A3614B61441
:1003A0008316051583123611051936158316851423
:1003B0008312B6118518B615361CE5293619E529BC
:1003C000B10A3108093C031CB101B61CF029B61969
:1003D000F029B108031DEF290930B100F029B1035C
:1003E000361036193614B610B619B6148A110A1218
:1003F0006E2AAB0A2B080A3C031D222AAB01AC0A69
:100400002C08063C031D222AAC01AD0A2D080A3C2B
:10041000031D222AAD01AE0A2E08063C031D222A26
:10042000AE01AF0A2F080A3C031D182AAF01B00A1B
:100430003008023C031D222A2F08043C031D222AF7
:10044000AF01B0018A110A12812A03081F39830003
:10045000AB01AC01AD01AE01AF01B001B101FF30A4
:10046000B20083161F149F141F159F1107309C00A4
:10047000831384308312A000BE30A100C830A200D4
:100480009830A300B230A4009130A5008130A600BE
:10049000BC30A7008030A8009030A900E030AA004E
:1004A000B401B3013510B51419288316081083124E
:1004B0000810831605148312351105183515B51C5F
:1004C000652A3519652A0130B506B5103519B514F8
:1004D00035186C2A9C286D2A7329CE29831608109A
:1004E00083120814B30A0319B40A3408003C031831
:1004F000832AFF3A031D802A3308353C0318832AD8
:0A050000F929B401B301552A630084
:02400E000A2F77
:00000001FF
;PIC16F877A
;CRC=F25E  CREATED="02-Jun-26 13:26"
