:1000000002308A00E82A0000FF00030E8301A100ED
:100010000A08A0008A010408A2007708A300780853
:10002000A4007908A5007A08A600831383128B1E0A
:100030001B280B192C28220884002308F700240809
:10004000F8002508F9002608FA0020088A00210E89
:100050008300FF0E7F0E09008A110A122F280B1150
:10006000063081004308E83C031D65284408033C32
:10007000031D6528B30AC401C30133080A3C031DEC
:100080006528B301B40A3408063C031D6528B40191
:10009000B50A35080A3C031D6528B501B60A3608BD
:1000A000063C031D6528B601B70A37080A3C031D44
:1000B0005B28B701B80A3808023C031D65283708D9
:1000C000043C031D6528B701B801C30A0319C40A1B
:1000D0000B118A110A121B282030D900D501D60134
:1000E000D701D8015008FA004F08F9004E08F8006F
:1000F0004D08F7000310771C8B285108D5075208CC
:100100000318520FD60753080318530FD707540884
:100110000318540FD807D80CD70CD60CD50CFA0CF2
:10012000F90CF80CF70CD90B7A288A110A12792BE2
:1001300083189D28553084008313F701F801F901D5
:10014000FA01D501D601D701D8015408530452044D
:1001500051040319DB282030D9000310CD0DCE0D3A
:10016000CF0DD00DD50DD60DD70DD80D5408580292
:10017000031DC42853085702031DC4285208560201
:10018000031DC42851085502031CD5285108D50267
:100190005208031C520FD6025308031C530FD702F8
:1001A0005408031C540FD8020314F70DF80DF90D71
:1001B000FA0DD90BAD2855088000840A5608800036
:1001C000840A57088000840A580880008A110A129D
:1001D000912B4A08F80149020318F1284908F70051
:1001E000FD28F7010830CB00C90DF70D4A0877024A
:1001F0000318F700F80DCB0BF4280800C5134508C9
:1002000083168700831287174513450883168700D6
:1002100083120717C51245088316870083128716B5
:100220004512450883168700831207168316881126
:1002300083128815831608118312081508004930A7
:10024000840083130008031933290130F800F701F3
:10025000F70B2829F80B27294A30F700F70B2E292E
:100260003129800B25290800FE202730380784001B
:1002700083130008C900831686018312490886008B
:100280000630F700F70B42290000C5134508831616
:100290008700831287130130C9001F21FE202730F9
:1002A0003707840083130008C90083168601831270
:1002B000490886000630F700F70B5C29000045135B
:1002C000450883168700831207130130C9001F21D8
:1002D000FE2027303607840083130008C9008316E8
:1002E00086018312490886000630F700F70B76294D
:1002F0000000C5124508831687008312871201305B
:10030000C9001F21FE202730350784008313000811
:10031000C900831686018312490886000630F7005B
:10032000F70B9029000045124508831687008312B9
:1003300007120130C9001F21FE2027303407840036
:1003400083130008C90083168601831249088600BA
:100350000630F700F70BAA290000831688118312D4
:1003600088110130C9001F21FE2027303307840087
:1003700083130008C900831686018312490886008A
:100380000630F700F70BC22900008316081183120C
:1003900008110130C9001F21FE208A110A12192CF0
:1003A0003B080A3C031DD7290930BC00FB29BB08C8
:1003B000031DDD293B30BC00FB293B0BE229173034
:1003C000BC00FB293B08023C031DE9291F30BC008F
:1003D000FB293B08033C031DF0290C30BC00FB2922
:1003E0003B08043C031DF7296330BC00FB293B0894
:1003F0000B3C0319BC01FE203B080A3C031D2B2AC1
:1004000083160811831208112730390784008313DB
:100410000008C9008316860183124908860005304A
:10042000C9001F218316081183120815C51345083A
:10043000831687008312871383168601831231087F
:1004400086000530C9001F21C513450883168700A3
:1004500083128717B82A3B080B3C031D822AC51359
:10046000450883168700831287134208C9000A30A3
:10047000CA00E92027307807840083130008C900E8
:10048000831686018312490886000530C9001F21A2
:10049000C51345088316870083128717451345083F
:1004A00083168700831207134208C9000A30CA0066
:1004B000E92027307707840083130008C9008316DA
:1004C00086018312490886000530C9001F214513A3
:1004D00045088316870083120717C512450883163F
:1004E00087008312871283168601831232088600E2
:1004F0000530C9001F21C5124508831687008312E5
:100500008716B82A83160811831208113908C90002
:100510000A30CA00E92027307707840083130008D7
:10052000C900831686018312490886000530C90078
:100530001F21831608118312081583168811831250
:1005400088113908C9000A30CA00E9202730780725
:10055000840083130008C9008316860183124908AA
:1005600086000530C9001F21831688118312881563
:100570008A110A12192C83160515831249100519C0
:100580004914831685148312C9108518C9143B08B1
:100590000B3C0319DF2ABA1CD42A4918D42AB90AF9
:1005A00039083C02031CB9013A1DDF2AC918DF2AA9
:1005B000B908031DDE2A3C08B900DF2AB903BA10C6
:1005C0004918BA143A11C9183A158A110A121A2C84
:1005D00003081F398300B301B401B501B601B701A7
:1005E000B801B9013A10BB01BC01BD01BE01BF0198
:1005F000C001C101C201C401C301FF30C500BA146A
:100600003A1583161F149F141F159F1107309C0065
:10061000831384308312A700BE30A800C830A9001D
:100620009830AA00B230AB009130AC008130AD0000
:10063000BC30AE008030AF009030B000E030B10090
:10064000C530B200461446154612003083168700A6
:100650008312C5008316880086001F1383121F179C
:100660009F1783169F1783121F14C0308B048B169D
:1006700083160108C03901388100063083128100D9
:10068000831608108312081083161F109F101F1165
:100690009F112030F80083121F08C73978049F008B
:1006A0001030F700F70B522B00001F151F19562BA7
:1006B00083161E088312C7001E08C80083161F1465
:1006C0009F141F159F118312CC01CB014808CA004B
:1006D0004708C9004C08D0004B08CF004808CE009E
:1006E0004708CD00D401D3010130D200E830D10059
:1006F0006C287A08CC007908CB007808CA00770803
:10070000C90083107A08D0007908CF007808CE009D
:100710007708CD00D401D3010330D200E830D100F6
:1007200098287708C200831605148312C61005188E
:10073000C614461CA52BC618A52B0130BA063A1CB8
:10074000A52B0A30BB00B90146124610C618461444
:10075000831685158312C6118519C615461D112CE1
:10076000C619112C3A1C112C461EEC2B3B08F43EEA
:100770000318E72B0C3E202C3908BD003D08C900AA
:100780000A30CA00E9207708B5003D08C9000A30E0
:10079000CA00E9207808B600E72B3908BE003E08F9
:1007A000C9000A30CA00E9207708B7003E08C9002E
:1007B0000A30CA00E9207808B800E72B3908BF00E2
:1007C000E72B3908C000E72B3908C100E72B461298
:1007D0000A30BB00B901112C3B080A3C031D112C47
:1007E0003908053C031DF92B0B30BB00B901461637
:1007F000112C3908BB00B90146163B08FB3E031813
:10080000112C053E302C3D08B900112C3E08B900D2
:10081000112C3F08B900112C4008B900112C4108D7
:10082000B9004611C61946153A18182C3429192C46
:10083000D029BB2A8316081083120814402B6300AA
:100840000A108A100A158207BC2BCD2BDE2BE12B58
:10085000E42BE72BE72BE72BE72BE72BE72BE72B0B
:100860000A108A100A158207032C062C092C0C2C5E
:020870000F2C4B
:02400E000A2F77
:00000001FF
;PIC16F877A
;CRC=1A03  CREATED="07-Jul-26 21:55"
