:1000000001308A0095290000FF00030E8301A10042
:100010000A08A0008A010408A2007708A300780853
:10002000A4007908A5007A08A600831383128B1E0A
:100030001B280B192C28220884002308F700240809
:10004000F8002508F9002608FA0020088A00210E89
:100050008300FF0E7F0E09008A110A122F280B1150
:10006000063081003908E83C031D65283A08033C46
:10007000031D6528B20ABA01B90132080A3C031D02
:100080006528B201B30A3308063C031D6528B30195
:10009000B40A34080A3C031D6528B401B50A3508C2
:1000A000063C031D6528B501B60A36080A3C031D47
:1000B0005B28B601B70A3708023C031D65283608DD
:1000C000043C031D6528B601B701B90A0319BA0A31
:1000D0000B118A110A121B28BB133B0883168700D9
:1000E000831287173B133B08831687008312071779
:1000F000BB123B0883168700831287163B123B080E
:1001000083168700831207168316881183128815B9
:10011000831608118312081508003E3084008313EB
:1001200000080319A1280130F800F701F70B962801
:10013000F80B95284A30F700F70B9C289F28800B76
:10014000932808006C2027303707840083130008A9
:10015000BE008316860183123E0886000630F70033
:10016000F70BB0280000BB133B08831687008312EF
:1001700087130130BE008D206C20273036078400A5
:1001800083130008BE008316860183123E08860092
:100190000630F700F70BCA2800003B133B08831614
:1001A0008700831207130130BE008D206C2027309A
:1001B0003507840083130008BE008316860183126E
:1001C0003E0886000630F700F70BE4280000BB125B
:1001D0003B0883168700831287120130BE008D20F2
:1001E0006C2027303407840083130008BE00831678
:1001F000860183123E0886000630F700F70BFE28C2
:1002000000003B123B08831687008312071201305F
:10021000BE008D206C202730330784008313000834
:10022000BE008316860183123E0886000630F70062
:10023000F70B1829000083168811831288110130EA
:10024000BE008D206C202730320784008313000805
:10025000BE008316860183123E0886000630F70032
:10026000F70B3029000083160811831208110130A2
:10027000BE008D206C208A110A12E9296C20831699
:1002800008118312081127303807840083130008EF
:10029000BE008316860183123E0886000530BE002C
:1002A0008D208316081183120815BB133B08831693
:1002B0008700831287138316860183123108860014
:1002C0000530BE008D20BB133B08831687008312C8
:1002D00087178A110A12E9298316051583123E1021
:1002E00005193E14831685148312BE108518BE149A
:1002F0003C1C81293E188129B80A3808093C031C96
:10030000B801BC1C8C29BE188C29B808031D8B2988
:100310000930B8008C29B8033C103E183C14BC10BE
:10032000BE18BC148A110A12EA2903081F39830077
:10033000B201B301B401B501B601B701B801BA0108
:10034000B901FF30BB003C14BC1483161F149F146A
:100350001F159F1107309C00831384308312A70060
:10036000BE30A800C830A9009830AA00B230AB0057
:100370009130AC008130AD00BC30AE008030AF00B9
:100380009030B000E030B1003D10BD14C0308B049F
:100390008B1683160108C03901388100063083129C
:1003A0008100831608108312081083160514831227
:1003B0003D1105183D15BD1CE1293D19E12901300C
:1003C000BD06BD103D19BD143D18E829A228E92934
:1003D0003E296C298316081083120814D129630062
:02400E000A2F77
:00000001FF
;PIC16F877A
;CRC=AF1A  CREATED="02-Jun-26 17:00"
