:1000000002308A00232A00000C296536EF33E937D5
:10001000A012641D2532BA126400323084008313AA
:100020000008031921280130F800F701F70B162802
:10003000F80B15284A30F700F70B1C281F28800BF7
:1000400013280800391826280812272808168316AE
:1000500008128312B9182E2888112F2888158316A4
:100060008811831239193628081137280815831684
:1000700008118312B9193E2888103F288814831666
:10008000881000008312881683168812472883126E
:1000900088128316881283120800BA018316081684
:1000A00000308312081A0130BA0483168815003014
:1000B000831288190130F7000310F70D7708BA048E
:1000C000831608150030831208190130F700F70D68
:1000D000F70DFC30F7057708BA0483168814003052
:1000E000831288180130F700F70DF70DF70DF8307F
:1000F000F7057708BA043A08F80008008316881252
:10010000881308138312881383168813081688151A
:100110000815881483120817831608130000831229
:10012000881683168812000083124D207808B900C3
:10013000881283168812000083128816831688128C
:10014000000083124D207808B800881283168812A8
:1001500008128811081188108312390EF700F03048
:10016000F70577083804F8007808B800B81FBA28EF
:1001700083168628B608031DBF288813C028881751
:1001800083168813000083120813831608130000D7
:1001900083128812831688128312370EB8000F302C
:1001A000B8053808B900222037080F39B800B9005F
:1001B000222008002830AC000C30AD000130AE0029
:1001C0000630AF00881283168812831288138316B4
:1001D0008813831208138316081308128811081154
:1001E00088108812881308130F308312B2000D2074
:1001F0000130AB002B08033C031C06290330B90077
:1002000022200530B2000D20AB0AFA280230B900D6
:1002100022200530B2000D20AB012B08033C031C4B
:100220001D292C302B07840083130008B000B60171
:100230003008B7007E20AB0A0D298A110A12462A1F
:10024000330B232926294030B4002729B40101307B
:100250003202B40734088038B500B6013508B7005B
:100260007E2008003108073A031940290B3A031988
:100270004529063A03194D29023A031953295829E9
:100280000130B200B30020215D29B6010130B70072
:100290007E200230B2000D205D290130B200023014
:1002A000B30020215D29B6011030B7007E205D2902
:1002B0000130B6003108B7007E2008000B08AC0002
:1002C0008B13831603178C170C1400000000831285
:1002D0000313AC1B8B170318952903170C087F39E0
:1002E0000313AC0003170D080313AD0003170F0829
:1002F0000313AE002C08B10032212D0803178D0026
:1003000003132E0803178F0003130B08AF008B1382
:10031000831603178C170C140000000083120313BC
:10032000AF1B8B17AB0B9529B42903170C0D0E0DC2
:100330007F390313AC0003170D080313AD00031737
:100340000F080313AE002C08B10032212D0803174B
:100350008D0003132E0803178F008D0A03198F0ACF
:1003600003100313AB0B5E298A110A12502A3208BC
:10037000F80131020318BF293108F700CB29F70132
:100380000830B300B10DF70D320877020318F700FB
:10039000F80DB30BC229080020302C1E3030AD0000
:1003A0002B08F700AB1FDC29F709F70A7708AB0029
:1003B0002D30AD00AC172C142B08B1006430B20006
:1003C000B7217708AB0030307807AE002B08B100BA
:1003D0000A30B200B72130307707B00030307807EC
:1003E000AF002D08F70030302E020319FB29AC14A2
:1003F000AC1B2C150F2A2D08AE002030AD0030307C
:100400002F020319072A2C14AC1BAC140F2A031D4E
:100410002C14031D0F2A2E08AF002030AE002C191B
:10042000162AAC18192A2C181C2A1F2A2D08B100CC
:1004300032212E08B10032212F08B10032213008BC
:10044000B1003221080003081F398300A101A00177
:10045000A201A301A401A501A601A701A801A90168
:10046000AA0183161F149F141F159F1107309C00AB
:100470008313C03083128B048B1683160108C03996
:1004800001388100063083128100DA280430031716
:100490008D0000308F00031009300313AB005E297C
:1004A0002208AB001830AC00CC213A30B100322128
:1004B0002308AB001830AC00CC213A30B100322117
:1004C0002408AB001830AC00CC210430AB00FA306B
:0C04D000B2000D20AB0B672A462A630027
:02400E000A2F77
:00000001FF
;PIC16F877A
;CRC=80C0  CREATED="02-Jun-26 16:16"
