:1000000002308A001A2A000083160812831208168A
:10001000831606108312061483160613831206171E
:10002000831686128312861683160612831206160C
:100030008316861183128615831606118312061500
:10004000080031308400831300080319352801307B
:10005000F800F701F70B2A28F80B29284A30F70097
:10006000F70B30283328800B27280800042083163C
:1000700008128312081283160610831206108316C4
:1000800006138312061383168612831286128316B2
:1000900006128312061283168611831286118316A6
:1000A0000611831206110230A800FA30B100212097
:1000B000A80B552804200230A800FA30B1002120F6
:1000C000A80B5D288A110A12302A3208F801310281
:1000D00003186D283108F7007928F7010830B300BC
:1000E000B10DF70D320877020318F700F80DB30BC6
:1000F000702808000420310803199A28013A0319CE
:10010000B328033A0319BC28013A0319D128073A46
:100110000319E628013A0319F728033A03190C29B1
:10012000013A031925290F3A03193229013A031913
:100130004F296829831686118312861183160612A9
:1001400083120612831686128312861283160613F2
:1001500083120613831606108312061083160812E4
:10016000831208126829831606108312061083165C
:1001700006138312061368298316861283128612C9
:1001800083160612831206128316061183120611B5
:1001900083160610831206108316081283120812A3
:1001A0006829831608128312081283160610831218
:1001B0000610831606118312061183160613831286
:1001C0000613831686128312861268298316061375
:1001D00083120613831606118312061183168611E5
:1001E000831286118316061083120610682983165F
:1001F0000812831208128316861183128611831641
:100200000611831206118316061383120613831632
:100210008612831286126829831608128312081226
:100220008316861183128611831606118312061116
:100230008316061383120613831686128312861200
:100240008316061283120612682983160812831277
:1002500008128316061083120610831606138312E3
:100260000613682983160812831208128316861152
:100270008312861183160611831206118316061344
:1002800083120613831686128312861283160612B1
:10029000831206128316061083120610682983162D
:1002A0000812831208128316861183128611831690
:1002B0000611831206118316061383120613831682
:1002C000861283128612831606108312061068297E
:1002D0000800A013200883168700831287172013B5
:1002E00020088316870083120717A01220088316A0
:1002F0008700831287162012200883168700831236
:1003000007168316081183120815831688118312A5
:1003100088152808B1000A30B20065207808AB00C3
:100320002808B1000A30B20065207708AC0029081F
:10033000B1000A30B20065207808AD002908B1008C
:100340000A30B20065207708AE002A08B1000A30F2
:10035000B20065207808AF002A08B1000A30B20068
:1003600065207708B000A013200883168700831249
:1003700087132B08B1007A200130B1002120A0138F
:1003800020088316870083128717201320088316FE
:100390008700831207132C08B1007A200130B100C6
:1003A0002120201320088316870083120717A0122C
:1003B000200883168700831287122D08B1007A2047
:1003C0000130B1002120A01220088316870083127B
:1003D00087162012200883168700831207122E0822
:1003E000B1007A200130B1002120201220088316AC
:1003F00087008312071683160811831208112F082D
:10040000B1007A200130B100212083160811831237
:10041000081583168811831288113008B1007A20DC
:100420000130B100212083168811831288158A11AA
:100430000A123B2A03081F398300FF30A0008316ED
:100440001F149F141F159F1107309C0083138312E4
:10045000A101A201A301A701A601A501A4013628BB
:1004600083160810831208102108A8002208A9008A
:100470002308AA006929F530A407193003181A3097
:10048000A507003003180130A6070030031801301B
:10049000A7078316081083120814A708031D622AF1
:1004A00026080E3C03188E2AFF3A031D622A2508EF
:1004B000413C03188E2AFF3A031D622A24083F3C60
:1004C00003188E2A4030A4024230031C4330A50298
:1004D0000F30031C1030A6020030031C0130A702AD
:1004E000A30A23083B3C0318882AA301A20A220876
:1004F0003B3C0318822AA201A10A2108173C031CD5
:10050000A101872A0230F700F70B842A00008D2A08
:100510000430F700F70B8A2A8D2A922A0730F70059
:08052000F70B902A302A63005A
:02400E000A2F77
:00000001FF
;PIC16F877A
;CRC=D177  CREATED="12-May-26 20:16"
