:1000000001308A00F12900002F08F8012E020318A0
:100010000C282E08F7001828F7010830B000AE0DA4
:10002000F70D2F0877020318F700F80DB00B0F2813
:1000300008002E08003A03193928013A03195228FA
:10004000033A03195B28013A03197028073A031988
:100050008528013A03199628033A0319AB28013A77
:100060000319C4280F3A0319D128013A0319EE28BD
:1000700007298316861183128611831606128312AE
:1000800006128316861283128612831606138312B3
:100090000613831606108312061083168610831229
:1000A000861007298316061083120610831606137E
:1000B000831206130729831686128312861283166B
:1000C0000612831206128316061183120611831676
:1000D00006108312061083168610831286100729D5
:1000E000831686108312861083160610831206105C
:1000F0008316061183120611831606138312061344
:10010000831686128312861207298316061383121A
:1001100006138316061183120611831686118312A5
:10012000861183160610831206100729831686107F
:100130008312861083168611831286118316061188
:100140008312061183160613831206138316861272
:10015000831286120729831686108312861083164F
:1001600086118312861183160611831206118316D7
:1001700006138312061383168612831286128316C1
:100180000612831206120729831686108312861020
:1001900083160610831206108316061383120613A5
:1001A0000729831686108312861083168611831200
:1001B0008611831606118312061183160613831205
:1001C0000613831686128312861283160612831272
:1001D000061283160610831206100729831686104E
:1001E00083128610831686118312861183160611D8
:1001F00083120611831606138312061383168612C2
:10020000831286128316061083120610072908002F
:100210002E3084008313000803191C290130F800D4
:10022000F701F70B1129F80B10294A30F700F70BEB
:1002300017291A29800B0E290800831686108312AD
:10024000861483160610831206148316061383126F
:1002500006178316861283128616831606128312D9
:1002600006168316861183128615831606118312CD
:1002700006150800A013200883168700831287172D
:10028000201320088316870083120717A012200866
:100290008316870083128716201220088316870092
:1002A0008312071683160811831208158316881106
:1002B000831288152508AE000A30AF0004207808A4
:1002C000A8002508AE000A30AF0004207708A90076
:1002D0002608AE000A30AF0004207808AA002608DD
:1002E000AE000A30AF0004207708AB002708AE004C
:1002F0000A30AF0004207808AC002708AE000A30AE
:10030000AF0004207708AD00A013200883168700F3
:10031000831287132808AE0019200A30AE00082186
:10032000A013200883168700831287171D2120132E
:10033000200883168700831207132908AE001920AE
:100340000A30AE000821201320088316870083128C
:1003500007171D21A0122008831687008312871219
:100360002A08AE0019200A30AE000821A012200889
:1003700083168700831287161D21201220088316FA
:100380008700831207122B08AE0019200A30AE0036
:1003900008212012200883168700831207161D21CA
:1003A00083160811831208112C08AE0019200A3098
:1003B000AE00082183160811831208151D2183162B
:1003C0008811831288112D08AE0019200A30AE0062
:1003D000082183168811831288151D218A110A129B
:1003E0000A2A03081F398300FF30A00083161F1458
:1003F0009F141F159F1107309C0083138312A101C6
:10040000A201A301A4012108A5002208A600230837
:10041000A7003A29A40A2408633C0318212AA4014E
:10042000A30A23083B3C0318212AA301A20A22089D
:100430003B3C0318212AA201A10A2108173C031CF6
:06044000A101032A630084
:02400E000A2F77
:00000001FF
;PIC16F877A
;CRC=DD41  CREATED="15-Apr-26 12:07"
