:1000000001308A005D290000203035078400831309
:100010000008B600831686018312360886000800A1
:100020003530840083130008031924280130F800B8
:10003000F701F70B1928F80B18284A30F700F70BCF
:100040001F282228800B16280800B401B3013408A9
:10005000013C031C9928031D31283308F33C031C81
:100060009928B0133008831687008312871308304D
:10007000B50004200130B5001020B01330088316FD
:100080008700831287173013300883168700831286
:1000900007130830B50004200130B50010203013DC
:1000A00030088316870083120717B01230088316B2
:1000B0008700831287120830B50004200130B50094
:1000C0001020B01230088316870083128716301272
:1000D000300883168700831207120830B500042009
:1000E0000130B500102030123008831687008312CB
:1000F000071683160811831208110830B500042072
:100100000130B500102083160811831208158316DC
:100110008811831288110830B50004200130B50021
:1001200010208316881183128815B30A0319B40AA4
:1001300027288A110A128829B013300883168700ED
:10014000831287173013300883168700831207172E
:10015000B0123008831687008312871630123008D9
:100160008316870083120716831608118312081559
:100170008316881183128815B01330088316870000
:10018000831287132F08B5000420A630F700F70B61
:10019000C7280000B0133008831687008312871722
:1001A0003013300883168700831207132E08B5001A
:1001B0000420A630F700F70BDB28000030133008CE
:1001C0008316870083120717B01230088316870042
:1001D000831287122D08B5000420A630F700F70B14
:1001E000EF280000B01230088316870083128716AC
:1001F0003012300883168700831207122C08B500CE
:100200000420A630F700F70B032900003012300855
:1002100083168700831207168316081183120811AC
:100220002B08B5000420A630F700F70B15290000B5
:1002300083160811831208158316881183128811FA
:100240002A08B5000420A630F700F70B2529000086
:1002500083168811831288152D2900008A110A122D
:100260008D29AA0A2A080A3C031D5A29AA01AB0AA9
:100270002B08063C031D5A29AB01AC0A2C080A3C8A
:10028000031D5A29AC01AD0A2D08063C031D5A294D
:10029000AD01AE0A2E080A3C031D5029AE01AF0A7B
:1002A0002F08023C031D5A292E08043C031D5A291D
:1002B000AE01AF018A110A12A22903081F39830077
:1002C000AA01AB01AC01AD01AE01AF01FF30B0003E
:1002D00083161F149F141F159F1107309C00831352
:1002E00084308312A000BE30A100C830A200983034
:1002F000A300B230A4009130A5008130A600BC302C
:10030000A7008030A8009030A900B201B1012528D3
:1003100083160810831208109C2883160810831275
:100320000814B10A0319B20A3208003C0318A229C2
:10033000FF3A031D9F293108353C0318A229B20159
:08034000B10131298829630095
:02400E000A2F77
:00000001FF
;PIC16F877A
;CRC=64B1  CREATED="14-May-26 15:04"
