:1000000002308A001A2A000083160812831208168A
:10001000831606108312061483160613831206171E
:10002000831686128312861683160612831206160C
:100030008316861183128615831606118312061500
:1000400008002E308400831300080319352801307E
:10005000F800F701F70B2A28F80B29284A30F70097
:10006000F70B30283328800B27280800042083163C
:1000700008128312081283160610831206108316C4
:1000800006138312061383168612831286128316B2
:1000900006128312061283168611831286118316A6
:1000A0000611831206110230A500FA30AE0021209D
:1000B000A50B552804200230A500FA30AE002120FF
:1000C000A50B5D288A110A122D2A2F08F8012E028D
:1000D00003186D282E08F7007928F7010830B000C2
:1000E000AE0DF70D2F0877020318F700F80DB00BCF
:1000F0007028080004202E0803199A28013A0319D1
:10010000B328033A0319BC28013A0319D128073A46
:100110000319E628013A0319F728033A03190C29B1
:10012000013A031925290F3A03193229013A031913
:100130004F29682983160812831208128316861124
:1001400083128611831606138312061383168612F2
:100150008312861283160612831206128316061065
:100160008312061068298316061083120610831660
:1001700006138312061368298316861283128612C9
:1001800083160612831206128316061183120611B5
:1001900083160610831206108316081283120812A3
:1001A0006829831608128312081283160610831218
:1001B0000610831606118312061183160613831286
:1001C0000613831686128312861268298316061375
:1001D00083120613831606118312061183168611E5
:1001E000831286118316061083120610682983165F
:1001F0000812831208128316861183128611831641
:100200000611831206118316061383120613831632
:100210008612831286126829831608128312081226
:100220008316861183128611831606118312061116
:100230008316061383120613831686128312861200
:100240008316061283120612682983160812831277
:1002500008128316061083120610831606138312E3
:100260000613682983160812831208128316861152
:100270008312861183160611831206118316061344
:1002800083120613831686128312861283160612B1
:10029000831206128316061083120610682983162D
:1002A0000812831208128316861183128611831690
:1002B0000611831206118316061383120613831682
:1002C000861283128612831606108312061068297E
:1002D0000800A013200883168700831287172013B5
:1002E00020088316870083120717A01220088316A0
:1002F0008700831287162012200883168700831236
:1003000007168316081183120815831688118312A5
:1003100088152508AE000A30AF0065207808A800CF
:100320002508AE000A30AF0065207708A90026082E
:10033000AE000A30AF0065207808AA002608AE009B
:100340000A30AF0065207708AB002708AE000A30FE
:10035000AF0065207808AC002708AE000A30AF0077
:1003600065207708AD00A01320088316870083124C
:1003700087132808AE007A200130AE002120A01398
:1003800020088316870083128717201320088316FE
:100390008700831207132908AE007A200130AE00CF
:1003A0002120201320088316870083120717A0122C
:1003B000200883168700831287122A08AE007A204D
:1003C0000130AE002120A01220088316870083127E
:1003D00087162012200883168700831207122B0825
:1003E000AE007A200130AE002120201220088316B2
:1003F00087008312071683160811831208112C0830
:10040000AE007A200130AE0021208316081183123D
:10041000081583168811831288112D08AE007A20E2
:100420000130AE00212083168811831288158A11AD
:100430000A12352A03081F398300FF30A0008316F3
:100440001F149F141F159F1107309C0083138312E4
:10045000A101A201A301A401362804202108A500BE
:100460002208A6002308A7006929A40A2408203C22
:1004700003184C2AA401A30A23083B3C03184C2A66
:10048000A301A20A22083B3C03184C2AA201A10A9C
:0C0490002108173C031CA1012E2A630068
:02400E000A2F77
:00000001FF
;PIC16F877A
;CRC=A666  CREATED="11-May-26 17:02"
