:1000000002308A001A2A0000831686108312861492
:10001000831606108312061483160613831206171E
:10002000831686128312861683160612831206160C
:100030008316861183128615831606118312061500
:1000400008002F308400831300080319352801307D
:10005000F800F701F70B2A28F80B29284A30F70097
:10006000F70B30283328800B27280800042083163C
:1000700086108312861083160610831206108316CC
:1000800006138312061383168612831286128316B2
:1000900006128312061283168611831286118316A6
:1000A0000611831206110230A600FA30AF0021209B
:1000B000A60B552804200230A600FA30AF002120FC
:1000C000A60B5D288A110A122E2A3008F8012F0289
:1000D00003186D282F08F7007928F7010830B100C0
:1000E000AF0DF70D300877020318F700F80DB10BCC
:1000F0007028080004202F0803199A28013A0319D0
:10010000B328033A0319BC28013A0319D128073A46
:100110000319E628013A0319F728033A03190C29B1
:10012000013A031925290F3A03193229013A031913
:100130004F296829831686118312861183160612A9
:1001400083120612831686128312861283160613F2
:100150008312061383160610831206108316861068
:1001600083128610682983160610831206108316E0
:1001700006138312061368298316861283128612C9
:1001800083160612831206128316061183120611B5
:1001900083160610831206108316861083128610AB
:1001A0006829831686108312861083160610831220
:1001B0000610831606118312061183160613831286
:1001C0000613831686128312861268298316061375
:1001D00083120613831606118312061183168611E5
:1001E000831286118316061083120610682983165F
:1001F0008610831286108316861183128611831649
:100200000611831206118316061383120613831632
:10021000861283128612682983168610831286102E
:100220008316861183128611831606118312061116
:100230008316061383120613831686128312861200
:1002400083160612831206126829831686108312FB
:100250008610831606108312061083160613831267
:10026000061368298316861083128610831686115A
:100270008312861183160611831206118316061344
:1002800083120613831686128312861283160612B1
:10029000831206128316061083120610682983162D
:1002A0008610831286108316861183128611831698
:1002B0000611831206118316061383120613831682
:1002C000861283128612831606108312061068297E
:1002D0000800A013200883168700831287172013B5
:1002E00020088316870083120717A01220088316A0
:1002F0008700831287162012200883168700831236
:1003000007168316081183120815831688118312A5
:1003100088152608AF000A30B00065207808A900CB
:100320002608AF000A30B00065207708AA00270829
:10033000AF000A30B00065207808AB002708AF0096
:100340000A30B00065207708AC002808AF000A30FA
:10035000B00065207808AD002808AF000A30B00072
:1003600065207708AE00A01320088316870083124B
:1003700087132908AF007A200530AF002120A01391
:1003800020088316870083128717201320088316FE
:100390008700831207132A08AF007A200530AF00C8
:1003A0002120201320088316870083120717A0122C
:1003B000200883168700831287122B08AF007A204B
:1003C0000530AF002120A012200883168700831279
:1003D00087162012200883168700831207122C0824
:1003E000AF007A200530AF002120201220088316AC
:1003F00087008312071683160811831208112D082F
:10040000AF007A200530AF00212083160811831237
:10041000081583168811831288112E08AF007A20E0
:100420000530AF00212083168811831288158A11A8
:100430000A12352A03081F398300FF30A0008316F3
:100440001F149F141F159F1107309C0083138312E4
:10045000A101A201A301A501A40136282108A6003B
:100460002208A7002308A8006929E430A4077930EE
:0A04700003187A30A5072E2A630056
:02400E000A2F77
:00000001FF
;PIC16F877A
;CRC=36D8  CREATED="15-Apr-26 15:21"
