:1000000002308A00512A00003008F8012F0203183C
:100010000C282F08F7001828F7010830B100AF0DA1
:10002000F70D300877020318F700F80DB10B0F2811
:100030000800831686108312861483160610831216
:10004000061483160613831206178316861283126C
:1000500086168316061283120616831686118312DD
:1000600086158316061183120615080019202F081D
:1000700003195628013A03196F28033A03197828FF
:10008000013A03198D28073A0319A228013A0319E6
:10009000B328033A0319C828013A0319E1280F3A93
:1000A0000319EE28013A03190B2924298316861116
:1000B0008312861183160612831206128316861285
:1000C00083128612831606138312061383160610F4
:1000D0008312061083168610831286102529831634
:1000E00006108312061083160613831206132529A1
:1000F0008316861283128612831606128312061244
:100100008316061183120611831606108312061039
:100110008316861083128610252983168610831273
:10012000861083160610831206108316061183129A
:100130000611831606138312061383168612831282
:1001400086122529831606138312061383160611B9
:1001500083120611831686118312861183160610E8
:1001600083120610252983168610831286108316A3
:1001700086118312861183160611831206118316C7
:1001800006138312061383168612831286122529FC
:1001900083168610831286108316861183128611A9
:1001A0008316061183120611831606138312061393
:1001B0008316861283128612831606128312061283
:1001C0002529831686108312861083160610831243
:1001D000061083160613831206132529831686102C
:1001E00083128610831686118312861183160611D8
:1001F00083120611831606138312061383168612C2
:1002000083128612831606128312061283160610B4
:1002100083120610252983168610831286108316F2
:100220008611831286118316061183120611831616
:100230000613831206138316861283128612831600
:100240000610831206102529192008002F3084007B
:100250008313000803193A290130F800F701F70B5E
:100260002F29F80B2E294A30F700F70B35293829AA
:10027000800B2C290800A013200883168700831206
:100280008717201320088316870083120717A012F0
:1002900020088316870083128716201220088316F1
:1002A0008700831207168316081183120815831618
:1002B0008811831288152608AF000A30B000042088
:1002C0007808A9002608AF000A30B000042077089B
:1002D000AA002708AF000A30B00004207808AB005D
:1002E0002708AF000A30B00004207708AC002808C7
:1002F000AF000A30B00004207808AD002808AF0035
:100300000A30B00004207708AE00A013200883163E
:100310008700831287132908AF0036200130AF0011
:100320002621A01320088316870083128717201325
:10033000200883168700831207132A08AF0036208F
:100340000130AF0026212013200883168700831276
:100350000717A012200883168700831287122B0824
:10036000AF0036200130AF002621A01220088316EE
:1003700087008312871620122008831687008312B5
:1003800007122C08AF0036200130AF0026212012C2
:10039000200883168700831207168316081183121C
:1003A00008112D08AF0036200130AF00262183163A
:1003B00008118312081583168811831288112E08DC
:1003C000AF0036200130AF0026218316881183123A
:1003D000881508008316081083120810A601A701CB
:1003E000A8013B2183160810831208148A110A12EF
:1003F000692A8316081083120810A601A701A80114
:100400003B2183160810831208143B30A300A30A73
:1004100023083B3C031CA3018A110A127E2A83167F
:10042000081083120810A601A701A8013B2183161A
:100430000810831208143B30A300A400A30A230869
:100440003B3C0318292AA301A40A24083B3C031CB3
:10045000A4018A110A12932A831608108312081025
:10046000A601A701A8013B218316081083120814D6
:100470003B30A300A4001730A500A30A23083B3C8F
:1004800003184E2AA301A40A24083B3C03184E2A51
:10049000A401A50A2508173C031CA5018A110A120C
:1004A000A82A03081F398300FF30A00083161F14F9
:1004B0009F141F159F1107309C0083138312A20104
:1004C000A101A208031D6D2A2108633C031C6D2AAB
:1004D000EA29A10A0319A20A612A0430A300FA300A
:1004E000AF002621A30B6F2AA201A101A208031DC0
:1004F000822A2108633C031C822AF929A10A0319D4
:10050000A20A762A0430A300FA30AF002621A30BFA
:10051000842AA201A101A208031D972A2108633C95
:10052000031C972A0F2AA10A0319A20A8B2A043056
:10053000A300FA30AF002621A30B992AA201A10142
:10054000A208031DAC2A2108633C031CAC2A2C2AF8
:10055000A10A0319A20AA02A0C30A300FA30AF00A6
:0A0560002621A30BAE2A5F2A6300D8
:02400E000A2F77
:00000001FF
;PIC16F877A
;CRC=B0E6  CREATED="12-May-26 19:44"
