:1000000001308A00EC2900002C08F8012B020318AB
:100010000C282B08F7001828F7010830AD00AB0DAD
:10002000F70D2C0877020318F700F80DAD0B0F2819
:100030000800831686108312861483160610831216
:10004000061483160613831206178316861283126C
:1000500086168316061283120616831686118312DD
:1000600086158316061183120615080019202B0821
:1000700003195628013A03196F28033A03197828FF
:10008000013A03198D28073A0319A228013A0319E6
:10009000B328033A0319C828013A0319E1280F3A93
:1000A0000319EE28013A03190B2924298316861116
:1000B0008312861183160612831206128316861285
:1000C00083128612831606138312061383160610F4
:1000D0008312061083168610831286102529831634
:1000E00006108312061083160613831206132529A1
:1000F0008316861283128612831606128312061244
:100100008316061183120611831606108312061039
:100110008316861083128610252983168610831273
:10012000861083160610831206108316061183129A
:100130000611831606138312061383168612831282
:1001400086122529831606138312061383160611B9
:1001500083120611831686118312861183160610E8
:1001600083120610252983168610831286108316A3
:1001700086118312861183160611831206118316C7
:1001800006138312061383168612831286122529FC
:1001900083168610831286108316861183128611A9
:1001A0008316061183120611831606138312061393
:1001B0008316861283128612831606128312061283
:1001C0002529831686108312861083160610831243
:1001D000061083160613831206132529831686102C
:1001E00083128610831686118312861183160611D8
:1001F00083120611831606138312061383168612C2
:1002000083128612831606128312061283160610B4
:1002100083120610252983168610831286108316F2
:100220008611831286118316061183120611831616
:100230000613831206138316861283128612831600
:100240000610831206102529192008002B3084007F
:100250008313000803193A290130F800F701F70B5E
:100260002F29F80B2E294A30F700F70B35293829AA
:10027000800B2C290800A013200883168700831206
:100280008717201320088316870083120717A012F0
:1002900020088316870083128716201220088316F1
:1002A0008700831207168316081183120815831618
:1002B0008811831288152208AB000A30AC00042094
:1002C0007808A5002208AB000A30AC0004207708AB
:1002D000A6002308AB000A30AC0004207808A70071
:1002E0002308AB000A30AC0004207708A8002408DB
:1002F000AB000A30AC0004207808A9002408AB0049
:100300000A30AC0004207708AA00A0132008831646
:100310008700831287132508AB0036200530AB0019
:100320002621A01320088316870083128717201325
:10033000200883168700831207132608AB00362097
:100340000530AB0026212013200883168700831276
:100350000717A01220088316870083128712270828
:10036000AB0036200530AB002621A01220088316F2
:1003700087008312871620122008831687008312B5
:1003800007122808AB0036200530AB0026212012CA
:10039000200883168700831207168316081183121C
:1003A00008112908AB0036200530AB002621831642
:1003B00008118312081583168811831288112A08E0
:1003C000AB0036200530AB0026218316881183123E
:1003D00088158A110A120C2A03081F398300FF307E
:1003E000A00083161F149F141F159F1107309C0037
:1003F0008313081083120810831608108312081440
:10040000A1012108633C031C0E2A0C30A2002230FB
:10041000A3003830A4003B29A10A012A8316081042
:10042000831208100430A200FA30AB002621A20B80
:06043000142AFC29630000
:02400E000A2F77
:00000001FF
;PIC16F877A
;CRC=D890  CREATED="15-Apr-26 14:49"
